{
  "address": "0xaE97f60c0Aa6d6827539DD1A32be7283D90551bb",
  "abi": [
    {
      "inputs": [],
      "stateMutability": "nonpayable",
      "type": "constructor"
    },
    {
      "anonymous": false,
      "inputs": [
        {
          "indexed": false,
          "internalType": "uint256",
          "name": "proposalId",
          "type": "uint256"
        }
      ],
      "name": "ProposalCanceled",
      "type": "event"
    },
    {
      "anonymous": false,
      "inputs": [
        {
          "indexed": false,
          "internalType": "uint256",
          "name": "proposalId",
          "type": "uint256"
        },
        {
          "indexed": false,
          "internalType": "address",
          "name": "proposer",
          "type": "address"
        },
        {
          "indexed": false,
          "internalType": "address[]",
          "name": "targets",
          "type": "address[]"
        },
        {
          "indexed": false,
          "internalType": "uint256[]",
          "name": "values",
          "type": "uint256[]"
        },
        {
          "indexed": false,
          "internalType": "string[]",
          "name": "signatures",
          "type": "string[]"
        },
        {
          "indexed": false,
          "internalType": "bytes[]",
          "name": "calldatas",
          "type": "bytes[]"
        },
        {
          "indexed": false,
          "internalType": "uint256",
          "name": "startBlock",
          "type": "uint256"
        },
        {
          "indexed": false,
          "internalType": "uint256",
          "name": "endBlock",
          "type": "uint256"
        },
        {
          "indexed": false,
          "internalType": "string",
          "name": "description",
          "type": "string"
        }
      ],
      "name": "ProposalCreated",
      "type": "event"
    },
    {
      "anonymous": false,
      "inputs": [
        {
          "indexed": false,
          "internalType": "uint256",
          "name": "proposalId",
          "type": "uint256"
        }
      ],
      "name": "ProposalExecuted",
      "type": "event"
    },
    {
      "anonymous": false,
      "inputs": [
        {
          "indexed": false,
          "internalType": "uint256",
          "name": "proposalId",
          "type": "uint256"
        },
        {
          "indexed": false,
          "internalType": "uint256",
          "name": "eta",
          "type": "uint256"
        }
      ],
      "name": "ProposalQueued",
      "type": "event"
    },
    {
      "anonymous": false,
      "inputs": [
        {
          "indexed": false,
          "internalType": "uint256",
          "name": "oldProposalThreshold",
          "type": "uint256"
        },
        {
          "indexed": false,
          "internalType": "uint256",
          "name": "newProposalThreshold",
          "type": "uint256"
        }
      ],
      "name": "ProposalThresholdSet",
      "type": "event"
    },
    {
      "anonymous": false,
      "inputs": [
        {
          "indexed": false,
          "internalType": "uint256",
          "name": "oldQuorumNumerator",
          "type": "uint256"
        },
        {
          "indexed": false,
          "internalType": "uint256",
          "name": "newQuorumNumerator",
          "type": "uint256"
        }
      ],
      "name": "QuorumNumeratorUpdated",
      "type": "event"
    },
    {
      "anonymous": false,
      "inputs": [
        {
          "indexed": false,
          "internalType": "address",
          "name": "oldTimelock",
          "type": "address"
        },
        {
          "indexed": false,
          "internalType": "address",
          "name": "newTimelock",
          "type": "address"
        }
      ],
      "name": "TimelockChange",
      "type": "event"
    },
    {
      "anonymous": false,
      "inputs": [
        {
          "indexed": true,
          "internalType": "address",
          "name": "voter",
          "type": "address"
        },
        {
          "indexed": false,
          "internalType": "uint256",
          "name": "proposalId",
          "type": "uint256"
        },
        {
          "indexed": false,
          "internalType": "uint8",
          "name": "support",
          "type": "uint8"
        },
        {
          "indexed": false,
          "internalType": "uint256",
          "name": "weight",
          "type": "uint256"
        },
        {
          "indexed": false,
          "internalType": "string",
          "name": "reason",
          "type": "string"
        }
      ],
      "name": "VoteCast",
      "type": "event"
    },
    {
      "anonymous": false,
      "inputs": [
        {
          "indexed": false,
          "internalType": "uint256",
          "name": "oldVotingDelay",
          "type": "uint256"
        },
        {
          "indexed": false,
          "internalType": "uint256",
          "name": "newVotingDelay",
          "type": "uint256"
        }
      ],
      "name": "VotingDelaySet",
      "type": "event"
    },
    {
      "anonymous": false,
      "inputs": [
        {
          "indexed": false,
          "internalType": "uint256",
          "name": "oldVotingPeriod",
          "type": "uint256"
        },
        {
          "indexed": false,
          "internalType": "uint256",
          "name": "newVotingPeriod",
          "type": "uint256"
        }
      ],
      "name": "VotingPeriodSet",
      "type": "event"
    },
    {
      "inputs": [],
      "name": "BALLOT_TYPEHASH",
      "outputs": [
        {
          "internalType": "bytes32",
          "name": "",
          "type": "bytes32"
        }
      ],
      "stateMutability": "view",
      "type": "function"
    },
    {
      "inputs": [],
      "name": "COUNTING_MODE",
      "outputs": [
        {
          "internalType": "string",
          "name": "",
          "type": "string"
        }
      ],
      "stateMutability": "pure",
      "type": "function"
    },
    {
      "inputs": [
        {
          "internalType": "uint256",
          "name": "proposalId",
          "type": "uint256"
        },
        {
          "internalType": "uint8",
          "name": "support",
          "type": "uint8"
        }
      ],
      "name": "castVote",
      "outputs": [
        {
          "internalType": "uint256",
          "name": "",
          "type": "uint256"
        }
      ],
      "stateMutability": "nonpayable",
      "type": "function"
    },
    {
      "inputs": [
        {
          "internalType": "uint256",
          "name": "proposalId",
          "type": "uint256"
        },
        {
          "internalType": "uint8",
          "name": "support",
          "type": "uint8"
        },
        {
          "internalType": "uint8",
          "name": "v",
          "type": "uint8"
        },
        {
          "internalType": "bytes32",
          "name": "r",
          "type": "bytes32"
        },
        {
          "internalType": "bytes32",
          "name": "s",
          "type": "bytes32"
        }
      ],
      "name": "castVoteBySig",
      "outputs": [
        {
          "internalType": "uint256",
          "name": "",
          "type": "uint256"
        }
      ],
      "stateMutability": "nonpayable",
      "type": "function"
    },
    {
      "inputs": [
        {
          "internalType": "uint256",
          "name": "proposalId",
          "type": "uint256"
        },
        {
          "internalType": "uint8",
          "name": "support",
          "type": "uint8"
        },
        {
          "internalType": "string",
          "name": "reason",
          "type": "string"
        }
      ],
      "name": "castVoteWithReason",
      "outputs": [
        {
          "internalType": "uint256",
          "name": "",
          "type": "uint256"
        }
      ],
      "stateMutability": "nonpayable",
      "type": "function"
    },
    {
      "inputs": [
        {
          "internalType": "address[]",
          "name": "targets",
          "type": "address[]"
        },
        {
          "internalType": "uint256[]",
          "name": "values",
          "type": "uint256[]"
        },
        {
          "internalType": "bytes[]",
          "name": "calldatas",
          "type": "bytes[]"
        },
        {
          "internalType": "bytes32",
          "name": "descriptionHash",
          "type": "bytes32"
        }
      ],
      "name": "execute",
      "outputs": [
        {
          "internalType": "uint256",
          "name": "",
          "type": "uint256"
        }
      ],
      "stateMutability": "payable",
      "type": "function"
    },
    {
      "inputs": [
        {
          "internalType": "address",
          "name": "account",
          "type": "address"
        },
        {
          "internalType": "uint256",
          "name": "blockNumber",
          "type": "uint256"
        }
      ],
      "name": "getVotes",
      "outputs": [
        {
          "internalType": "uint256",
          "name": "",
          "type": "uint256"
        }
      ],
      "stateMutability": "view",
      "type": "function"
    },
    {
      "inputs": [
        {
          "internalType": "uint256",
          "name": "proposalId",
          "type": "uint256"
        },
        {
          "internalType": "address",
          "name": "account",
          "type": "address"
        }
      ],
      "name": "hasVoted",
      "outputs": [
        {
          "internalType": "bool",
          "name": "",
          "type": "bool"
        }
      ],
      "stateMutability": "view",
      "type": "function"
    },
    {
      "inputs": [
        {
          "internalType": "address[]",
          "name": "targets",
          "type": "address[]"
        },
        {
          "internalType": "uint256[]",
          "name": "values",
          "type": "uint256[]"
        },
        {
          "internalType": "bytes[]",
          "name": "calldatas",
          "type": "bytes[]"
        },
        {
          "internalType": "bytes32",
          "name": "descriptionHash",
          "type": "bytes32"
        }
      ],
      "name": "hashProposal",
      "outputs": [
        {
          "internalType": "uint256",
          "name": "",
          "type": "uint256"
        }
      ],
      "stateMutability": "pure",
      "type": "function"
    },
    {
      "inputs": [
        {
          "internalType": "contract IVotesUpgradeable",
          "name": "_token",
          "type": "address"
        },
        {
          "internalType": "contract TimelockControllerUpgradeable",
          "name": "_timelock",
          "type": "address"
        },
        {
          "internalType": "uint256",
          "name": "_votingDelay",
          "type": "uint256"
        },
        {
          "internalType": "uint256",
          "name": "_votingPeriod",
          "type": "uint256"
        },
        {
          "internalType": "uint256",
          "name": "_quorum",
          "type": "uint256"
        }
      ],
      "name": "initialize",
      "outputs": [],
      "stateMutability": "nonpayable",
      "type": "function"
    },
    {
      "inputs": [],
      "name": "name",
      "outputs": [
        {
          "internalType": "string",
          "name": "",
          "type": "string"
        }
      ],
      "stateMutability": "view",
      "type": "function"
    },
    {
      "inputs": [
        {
          "internalType": "uint256",
          "name": "proposalId",
          "type": "uint256"
        }
      ],
      "name": "proposalDeadline",
      "outputs": [
        {
          "internalType": "uint256",
          "name": "",
          "type": "uint256"
        }
      ],
      "stateMutability": "view",
      "type": "function"
    },
    {
      "inputs": [
        {
          "internalType": "uint256",
          "name": "proposalId",
          "type": "uint256"
        }
      ],
      "name": "proposalEta",
      "outputs": [
        {
          "internalType": "uint256",
          "name": "",
          "type": "uint256"
        }
      ],
      "stateMutability": "view",
      "type": "function"
    },
    {
      "inputs": [
        {
          "internalType": "uint256",
          "name": "proposalId",
          "type": "uint256"
        }
      ],
      "name": "proposalSnapshot",
      "outputs": [
        {
          "internalType": "uint256",
          "name": "",
          "type": "uint256"
        }
      ],
      "stateMutability": "view",
      "type": "function"
    },
    {
      "inputs": [],
      "name": "proposalThreshold",
      "outputs": [
        {
          "internalType": "uint256",
          "name": "",
          "type": "uint256"
        }
      ],
      "stateMutability": "view",
      "type": "function"
    },
    {
      "inputs": [
        {
          "internalType": "uint256",
          "name": "proposalId",
          "type": "uint256"
        }
      ],
      "name": "proposalVotes",
      "outputs": [
        {
          "internalType": "uint256",
          "name": "againstVotes",
          "type": "uint256"
        },
        {
          "internalType": "uint256",
          "name": "forVotes",
          "type": "uint256"
        },
        {
          "internalType": "uint256",
          "name": "abstainVotes",
          "type": "uint256"
        }
      ],
      "stateMutability": "view",
      "type": "function"
    },
    {
      "inputs": [
        {
          "internalType": "address[]",
          "name": "targets",
          "type": "address[]"
        },
        {
          "internalType": "uint256[]",
          "name": "values",
          "type": "uint256[]"
        },
        {
          "internalType": "bytes[]",
          "name": "calldatas",
          "type": "bytes[]"
        },
        {
          "internalType": "string",
          "name": "description",
          "type": "string"
        }
      ],
      "name": "propose",
      "outputs": [
        {
          "internalType": "uint256",
          "name": "",
          "type": "uint256"
        }
      ],
      "stateMutability": "nonpayable",
      "type": "function"
    },
    {
      "inputs": [
        {
          "internalType": "address[]",
          "name": "targets",
          "type": "address[]"
        },
        {
          "internalType": "uint256[]",
          "name": "values",
          "type": "uint256[]"
        },
        {
          "internalType": "bytes[]",
          "name": "calldatas",
          "type": "bytes[]"
        },
        {
          "internalType": "bytes32",
          "name": "descriptionHash",
          "type": "bytes32"
        }
      ],
      "name": "queue",
      "outputs": [
        {
          "internalType": "uint256",
          "name": "",
          "type": "uint256"
        }
      ],
      "stateMutability": "nonpayable",
      "type": "function"
    },
    {
      "inputs": [
        {
          "internalType": "uint256",
          "name": "blockNumber",
          "type": "uint256"
        }
      ],
      "name": "quorum",
      "outputs": [
        {
          "internalType": "uint256",
          "name": "",
          "type": "uint256"
        }
      ],
      "stateMutability": "view",
      "type": "function"
    },
    {
      "inputs": [],
      "name": "quorumDenominator",
      "outputs": [
        {
          "internalType": "uint256",
          "name": "",
          "type": "uint256"
        }
      ],
      "stateMutability": "view",
      "type": "function"
    },
    {
      "inputs": [],
      "name": "quorumNumerator",
      "outputs": [
        {
          "internalType": "uint256",
          "name": "",
          "type": "uint256"
        }
      ],
      "stateMutability": "view",
      "type": "function"
    },
    {
      "inputs": [
        {
          "internalType": "address",
          "name": "target",
          "type": "address"
        },
        {
          "internalType": "uint256",
          "name": "value",
          "type": "uint256"
        },
        {
          "internalType": "bytes",
          "name": "data",
          "type": "bytes"
        }
      ],
      "name": "relay",
      "outputs": [],
      "stateMutability": "nonpayable",
      "type": "function"
    },
    {
      "inputs": [
        {
          "internalType": "uint256",
          "name": "newProposalThreshold",
          "type": "uint256"
        }
      ],
      "name": "setProposalThreshold",
      "outputs": [],
      "stateMutability": "nonpayable",
      "type": "function"
    },
    {
      "inputs": [
        {
          "internalType": "uint256",
          "name": "newVotingDelay",
          "type": "uint256"
        }
      ],
      "name": "setVotingDelay",
      "outputs": [],
      "stateMutability": "nonpayable",
      "type": "function"
    },
    {
      "inputs": [
        {
          "internalType": "uint256",
          "name": "newVotingPeriod",
          "type": "uint256"
        }
      ],
      "name": "setVotingPeriod",
      "outputs": [],
      "stateMutability": "nonpayable",
      "type": "function"
    },
    {
      "inputs": [
        {
          "internalType": "uint256",
          "name": "proposalId",
          "type": "uint256"
        }
      ],
      "name": "state",
      "outputs": [
        {
          "internalType": "enum IGovernorUpgradeable.ProposalState",
          "name": "",
          "type": "uint8"
        }
      ],
      "stateMutability": "view",
      "type": "function"
    },
    {
      "inputs": [
        {
          "internalType": "bytes4",
          "name": "interfaceId",
          "type": "bytes4"
        }
      ],
      "name": "supportsInterface",
      "outputs": [
        {
          "internalType": "bool",
          "name": "",
          "type": "bool"
        }
      ],
      "stateMutability": "view",
      "type": "function"
    },
    {
      "inputs": [],
      "name": "timelock",
      "outputs": [
        {
          "internalType": "address",
          "name": "",
          "type": "address"
        }
      ],
      "stateMutability": "view",
      "type": "function"
    },
    {
      "inputs": [],
      "name": "token",
      "outputs": [
        {
          "internalType": "contract IVotesUpgradeable",
          "name": "",
          "type": "address"
        }
      ],
      "stateMutability": "view",
      "type": "function"
    },
    {
      "inputs": [
        {
          "internalType": "uint256",
          "name": "newQuorumNumerator",
          "type": "uint256"
        }
      ],
      "name": "updateQuorumNumerator",
      "outputs": [],
      "stateMutability": "nonpayable",
      "type": "function"
    },
    {
      "inputs": [
        {
          "internalType": "contract TimelockControllerUpgradeable",
          "name": "newTimelock",
          "type": "address"
        }
      ],
      "name": "updateTimelock",
      "outputs": [],
      "stateMutability": "nonpayable",
      "type": "function"
    },
    {
      "inputs": [],
      "name": "version",
      "outputs": [
        {
          "internalType": "string",
          "name": "",
          "type": "string"
        }
      ],
      "stateMutability": "view",
      "type": "function"
    },
    {
      "inputs": [],
      "name": "votingDelay",
      "outputs": [
        {
          "internalType": "uint256",
          "name": "",
          "type": "uint256"
        }
      ],
      "stateMutability": "view",
      "type": "function"
    },
    {
      "inputs": [],
      "name": "votingPeriod",
      "outputs": [
        {
          "internalType": "uint256",
          "name": "",
          "type": "uint256"
        }
      ],
      "stateMutability": "view",
      "type": "function"
    },
    {
      "stateMutability": "payable",
      "type": "receive"
    }
  ],
  "transactionHash": "0x756017243a1e1881dd7b27a8d01792ccc7edcb8abf9dc92cc3de5d6bf9f6ecf6",
  "args": [],
  "numDeployments": 1,
  "solcInputHash": "37ae67bc61eb70164ff6d82da1f7d5cb",
  "bytecode": "0x60806040523480156200001157600080fd5b50600060019054906101000a900460ff166200003c5760008054906101000a900460ff16156200004d565b6200004c6200010960201b60201c565b5b6200008f576040517f08c379a0000000000000000000000000000000000000000000000000000000008152600401620000869062000171565b60405180910390fd5b60008060019054906101000a900460ff161590508015620000e0576001600060016101000a81548160ff02191690831515021790555060016000806101000a81548160ff0219169083151502179055505b8015620001025760008060016101000a81548160ff0219169083151502179055505b50620001f3565b600062000121306200012760201b620018bb1760201c565b15905090565b6000808273ffffffffffffffffffffffffffffffffffffffff163b119050919050565b600062000159602e8362000193565b91506200016682620001a4565b604082019050919050565b600060208201905081810360008301526200018c816200014a565b9050919050565b600082825260208201905092915050565b7f496e697469616c697a61626c653a20636f6e747261637420697320616c72656160008201527f647920696e697469616c697a6564000000000000000000000000000000000000602082015250565b615c3a80620002036000396000f3fe6080604052600436106101fd5760003560e01c806397c3d3341161010d578063d13f90b4116100a0578063ea0217cf1161006f578063ea0217cf1461080e578063eb9019d414610837578063ece40cc114610874578063f8ce560a1461089d578063fc0c546a146108da57610243565b8063d13f90b414610764578063d33219b41461078d578063dd4e2ba5146107b8578063deaaa7cc146107e357610243565b8063b58131b0116100dc578063b58131b014610696578063c01f9e37146106c1578063c28bc2fa146106fe578063c59057e41461072757610243565b806397c3d334146105da578063a7713a7014610605578063a890c91014610630578063ab58fb8e1461065957610243565b80633bccf4fd1161019057806354fd4d501161015f57806354fd4d50146104cf57806356781388146104fa57806370b0f660146105375780637b3c71d3146105605780637d5e81e21461059d57610243565b80633bccf4fd146103d95780633e4f49e6146104165780634385963214610453578063544ffc9c1461049057610243565b8063160cbed7116101cc578063160cbed7146103045780632656227d146103415780632d63f693146103715780633932abb1146103ae57610243565b806301ffc9a71461024857806302a251a31461028557806306f3f9e6146102b057806306fdde03146102d957610243565b36610243573073ffffffffffffffffffffffffffffffffffffffff16610221610905565b73ffffffffffffffffffffffffffffffffffffffff161461024157600080fd5b005b600080fd5b34801561025457600080fd5b5061026f600480360381019061026a9190613de1565b610914565b60405161027c91906148e2565b60405180910390f35b34801561029157600080fd5b5061029a610926565b6040516102a79190614cdf565b60405180910390f35b3480156102bc57600080fd5b506102d760048036038101906102d29190613eaa565b610935565b005b3480156102e557600080fd5b506102ee6109bd565b6040516102fb9190614a1d565b60405180910390f35b34801561031057600080fd5b5061032b60048036038101906103269190613c21565b610a4f565b6040516103389190614cdf565b60405180910390f35b61035b60048036038101906103569190613c21565b610d77565b6040516103689190614cdf565b60405180910390f35b34801561037d57600080fd5b5061039860048036038101906103939190613eaa565b610f43565b6040516103a59190614cdf565b60405180910390f35b3480156103ba57600080fd5b506103c3610fb1565b6040516103d09190614cdf565b60405180910390f35b3480156103e557600080fd5b5061040060048036038101906103fb9190613fe0565b610fc0565b60405161040d9190614cdf565b60405180910390f35b34801561042257600080fd5b5061043d60048036038101906104389190613eaa565b61104a565b60405161044a9190614a02565b60405180910390f35b34801561045f57600080fd5b5061047a60048036038101906104759190613efc565b61105c565b60405161048791906148e2565b60405180910390f35b34801561049c57600080fd5b506104b760048036038101906104b29190613eaa565b6110c8565b6040516104c693929190614dd3565b60405180910390f35b3480156104db57600080fd5b506104e4611101565b6040516104f19190614a1d565b60405180910390f35b34801561050657600080fd5b50610521600480360381019061051c9190613f38565b61113e565b60405161052e9190614cdf565b60405180910390f35b34801561054357600080fd5b5061055e60048036038101906105599190613eaa565b61116f565b005b34801561056c57600080fd5b5061058760048036038101906105829190613f74565b6111f7565b6040516105949190614cdf565b60405180910390f35b3480156105a957600080fd5b506105c460048036038101906105bf9190613ccc565b61125f565b6040516105d19190614cdf565b60405180910390f35b3480156105e657600080fd5b506105ef611277565b6040516105fc9190614cdf565b60405180910390f35b34801561061157600080fd5b5061061a611280565b6040516106279190614cdf565b60405180910390f35b34801561063c57600080fd5b5061065760048036038101906106529190613e81565b61128b565b005b34801561066557600080fd5b50610680600480360381019061067b9190613eaa565b611313565b60405161068d9190614cdf565b60405180910390f35b3480156106a257600080fd5b506106ab6113f1565b6040516106b89190614cdf565b60405180910390f35b3480156106cd57600080fd5b506106e860048036038101906106e39190613eaa565b611400565b6040516106f59190614cdf565b60405180910390f35b34801561070a57600080fd5b5061072560048036038101906107209190613bb5565b61146e565b005b34801561073357600080fd5b5061074e60048036038101906107499190613c21565b611540565b60405161075b9190614cdf565b60405180910390f35b34801561077057600080fd5b5061078b60048036038101906107869190613e0a565b61157c565b005b34801561079957600080fd5b506107a26116d2565b6040516107af919061473d565b60405180910390f35b3480156107c457600080fd5b506107cd6116fd565b6040516107da9190614a1d565b60405180910390f35b3480156107ef57600080fd5b506107f861173a565b60405161080591906148fd565b60405180910390f35b34801561081a57600080fd5b5061083560048036038101906108309190613eaa565b61175e565b005b34801561084357600080fd5b5061085e60048036038101906108599190613b79565b6117e6565b60405161086b9190614cdf565b60405180910390f35b34801561088057600080fd5b5061089b60048036038101906108969190613eaa565b6117fa565b005b3480156108a957600080fd5b506108c460048036038101906108bf9190613eaa565b611882565b6040516108d19190614cdf565b60405180910390f35b3480156108e657600080fd5b506108ef611894565b6040516108fc91906149e7565b60405180910390f35b600061090f6118de565b905090565b600061091f82611909565b9050919050565b6000610930611983565b905090565b61093d610905565b73ffffffffffffffffffffffffffffffffffffffff1661095b61198e565b73ffffffffffffffffffffffffffffffffffffffff16146109b1576040517f08c379a00000000000000000000000000000000000000000000000000000000081526004016109a890614a5f565b60405180910390fd5b6109ba81611996565b50565b606060fd80546109cc9061538d565b80601f01602080910402602001604051908101604052809291908181526020018280546109f89061538d565b8015610a455780601f10610a1a57610100808354040283529160200191610a45565b820191906000526020600020905b815481529060010190602001808311610a2857829003601f168201915b5050505050905090565b600080610a5e86868686611540565b905060046007811115610a9a577f4e487b7100000000000000000000000000000000000000000000000000000000600052602160045260246000fd5b610aa38261104a565b6007811115610adb577f4e487b7100000000000000000000000000000000000000000000000000000000600052602160045260246000fd5b14610b1b576040517f08c379a0000000000000000000000000000000000000000000000000000000008152600401610b1290614c1f565b60405180910390fd5b60006101f860009054906101000a900473ffffffffffffffffffffffffffffffffffffffff1673ffffffffffffffffffffffffffffffffffffffff1663f27a0c926040518163ffffffff1660e01b815260040160206040518083038186803b158015610b8657600080fd5b505afa158015610b9a573d6000803e3d6000fd5b505050506040513d601f19601f82011682018060405250810190610bbe9190613ed3565b90506101f860009054906101000a900473ffffffffffffffffffffffffffffffffffffffff1673ffffffffffffffffffffffffffffffffffffffff1663b1c5f4278888886000896040518663ffffffff1660e01b8152600401610c25959493929190614804565b60206040518083038186803b158015610c3d57600080fd5b505afa158015610c51573d6000803e3d6000fd5b505050506040513d601f19601f82011682018060405250810190610c759190613db8565b6101f96000848152602001908152602001600020819055506101f860009054906101000a900473ffffffffffffffffffffffffffffffffffffffff1673ffffffffffffffffffffffffffffffffffffffff16638f2a0bb0888888600089876040518763ffffffff1660e01b8152600401610cf49695949392919061486c565b600060405180830381600087803b158015610d0e57600080fd5b505af1158015610d22573d6000803e3d6000fd5b505050507f9a2e42fd6722813d69113e7d0079d3d940171428df7373df9c7f7617cfda2892828242610d5491906150a4565b604051610d62929190614daa565b60405180910390a18192505050949350505050565b600080610d8686868686611540565b90506000610d938261104a565b905060046007811115610dcf577f4e487b7100000000000000000000000000000000000000000000000000000000600052602160045260246000fd5b816007811115610e08577f4e487b7100000000000000000000000000000000000000000000000000000000600052602160045260246000fd5b1480610e84575060056007811115610e49577f4e487b7100000000000000000000000000000000000000000000000000000000600052602160045260246000fd5b816007811115610e82577f4e487b7100000000000000000000000000000000000000000000000000000000600052602160045260246000fd5b145b610ec3576040517f08c379a0000000000000000000000000000000000000000000000000000000008152600401610eba90614c1f565b60405180910390fd5b600160fe600084815260200190815260200160002060020160006101000a81548160ff0219169083151502179055507f712ae1383f79ac853f8d882153778e0260ef8f03b504e2866e0593e04d2b291f82604051610f219190614cdf565b60405180910390a1610f368288888888611a2d565b8192505050949350505050565b6000610fa060fe60008481526020019081526020016000206000016040518060200160405290816000820160009054906101000a900467ffffffffffffffff1667ffffffffffffffff1667ffffffffffffffff1681525050611a41565b67ffffffffffffffff169050919050565b6000610fbb611a4f565b905090565b6000806110216110197f150214d74d59b7d1e90c73fc22ef3d991dd0a76b046543d4d80ab92d2a50328f8989604051602001610ffe9392919061496b565b60405160208183030381529060405280519060200120611a5a565b868686611a74565b905061103e87828860405180602001604052806000815250611a9f565b91505095945050505050565b600061105582611c3f565b9050919050565b6000610161600084815260200190815260200160002060030160008373ffffffffffffffffffffffffffffffffffffffff1673ffffffffffffffffffffffffffffffffffffffff16815260200190815260200160002060009054906101000a900460ff16905092915050565b60008060008061016160008681526020019081526020016000209050806000015481600101548260020154935093509350509193909250565b60606040518060400160405280600181526020017f3100000000000000000000000000000000000000000000000000000000000000815250905090565b60008061114961198e565b905061116684828560405180602001604052806000815250611a9f565b91505092915050565b611177610905565b73ffffffffffffffffffffffffffffffffffffffff1661119561198e565b73ffffffffffffffffffffffffffffffffffffffff16146111eb576040517f08c379a00000000000000000000000000000000000000000000000000000000081526004016111e290614a5f565b60405180910390fd5b6111f481611e80565b50565b60008061120261198e565b905061125486828787878080601f016020809104026020016040519081016040528093929190818152602001838380828437600081840152601f19601f82011690508083019250505050505050611a9f565b915050949350505050565b600061126d85858585611ec7565b9050949350505050565b60006064905090565b60006101c654905090565b611293610905565b73ffffffffffffffffffffffffffffffffffffffff166112b161198e565b73ffffffffffffffffffffffffffffffffffffffff1614611307576040517f08c379a00000000000000000000000000000000000000000000000000000000081526004016112fe90614a5f565b60405180910390fd5b611310816121ed565b50565b6000806101f860009054906101000a900473ffffffffffffffffffffffffffffffffffffffff1673ffffffffffffffffffffffffffffffffffffffff1663d45c44356101f96000868152602001908152602001600020546040518263ffffffff1660e01b815260040161138691906148fd565b60206040518083038186803b15801561139e57600080fd5b505afa1580156113b2573d6000803e3d6000fd5b505050506040513d601f19601f820116820180604052508101906113d69190613ed3565b9050600181146113e657806113e9565b60005b915050919050565b60006113fb61228e565b905090565b600061145d60fe60008481526020019081526020016000206001016040518060200160405290816000820160009054906101000a900467ffffffffffffffff1667ffffffffffffffff1667ffffffffffffffff1681525050611a41565b67ffffffffffffffff169050919050565b611476610905565b73ffffffffffffffffffffffffffffffffffffffff1661149461198e565b73ffffffffffffffffffffffffffffffffffffffff16146114ea576040517f08c379a00000000000000000000000000000000000000000000000000000000081526004016114e190614a5f565b60405180910390fd5b6115398483838080601f016020809104026020016040519081016040528093929190818152602001838380828437600081840152601f19601f8201169050808301925050505050505085612299565b5050505050565b60008484848460405160200161155994939291906147aa565b6040516020818303038152906040528051906020012060001c9050949350505050565b600060019054906101000a900460ff166115a45760008054906101000a900460ff16156115ad565b6115ac6122c8565b5b6115ec576040517f08c379a00000000000000000000000000000000000000000000000000000000081526004016115e390614b9f565b60405180910390fd5b60008060019054906101000a900460ff16159050801561163c576001600060016101000a81548160ff02191690831515021790555060016000806101000a81548160ff0219169083151502179055505b61167a6040518060400160405280601181526020017f436f6e7665726e6f72436f6e74726163740000000000000000000000000000008152506122d9565b61168684846000612345565b61168e6123a4565b611697866123f5565b6116a082612450565b6116a9856124ab565b80156116ca5760008060016101000a81548160ff0219169083151502179055505b505050505050565b60006101f860009054906101000a900473ffffffffffffffffffffffffffffffffffffffff16905090565b60606040518060400160405280602081526020017f737570706f72743d627261766f2671756f72756d3d666f722c6162737461696e815250905090565b7f150214d74d59b7d1e90c73fc22ef3d991dd0a76b046543d4d80ab92d2a50328f81565b611766610905565b73ffffffffffffffffffffffffffffffffffffffff1661178461198e565b73ffffffffffffffffffffffffffffffffffffffff16146117da576040517f08c379a00000000000000000000000000000000000000000000000000000000081526004016117d190614a5f565b60405180910390fd5b6117e381612506565b50565b60006117f28383612590565b905092915050565b611802610905565b73ffffffffffffffffffffffffffffffffffffffff1661182061198e565b73ffffffffffffffffffffffffffffffffffffffff1614611876576040517f08c379a000000000000000000000000000000000000000000000000000000000815260040161186d90614a5f565b60405180910390fd5b61187f81612648565b50565b600061188d8261268f565b9050919050565b61019360009054906101000a900473ffffffffffffffffffffffffffffffffffffffff1681565b6000808273ffffffffffffffffffffffffffffffffffffffff163b119050919050565b60006101f860009054906101000a900473ffffffffffffffffffffffffffffffffffffffff16905090565b60007f6e665ced000000000000000000000000000000000000000000000000000000007bffffffffffffffffffffffffffffffffffffffffffffffffffffffff1916827bffffffffffffffffffffffffffffffffffffffffffffffffffffffff1916148061197c575061197b82612768565b5b9050919050565b600061013054905090565b600033905090565b61199e611277565b8111156119e0576040517f08c379a00000000000000000000000000000000000000000000000000000000081526004016119d790614a7f565b60405180910390fd5b60006101c6549050816101c6819055507f0553476bf02ef2726e8ce5ced78d63e26e602e4a2257b1f559418e24b46339978183604051611a21929190614daa565b60405180910390a15050565b611a3a85858585856127e2565b5050505050565b600081600001519050919050565b600061012f54905090565b6000611a6d611a67612881565b836128c1565b9050919050565b6000806000611a85878787876128f4565b91509150611a9281612a01565b8192505050949350505050565b60008060fe6000878152602001908152602001600020905060016007811115611af1577f4e487b7100000000000000000000000000000000000000000000000000000000600052602160045260246000fd5b611afa8761104a565b6007811115611b32577f4e487b7100000000000000000000000000000000000000000000000000000000600052602160045260246000fd5b14611b72576040517f08c379a0000000000000000000000000000000000000000000000000000000008152600401611b6990614b7f565b60405180910390fd5b6000611bd086611bc1846000016040518060200160405290816000820160009054906101000a900467ffffffffffffffff1667ffffffffffffffff1667ffffffffffffffff1681525050611a41565b67ffffffffffffffff166117e6565b9050611bde87878784612d52565b8573ffffffffffffffffffffffffffffffffffffffff167fb8e138887d0aa13bab447e82de9d5c1777041ecd21ca36ba824ff1e6c07ddda488878488604051611c2a9493929190614e0a565b60405180910390a28092505050949350505050565b600080611c4b83612fcb565b905060046007811115611c87577f4e487b7100000000000000000000000000000000000000000000000000000000600052602160045260246000fd5b816007811115611cc0577f4e487b7100000000000000000000000000000000000000000000000000000000600052602160045260246000fd5b14611cce5780915050611e7b565b60006101f960008581526020019081526020016000205490506000801b811415611cfc578192505050611e7b565b6101f860009054906101000a900473ffffffffffffffffffffffffffffffffffffffff1673ffffffffffffffffffffffffffffffffffffffff16632ab0f529826040518263ffffffff1660e01b8152600401611d5891906148fd565b60206040518083038186803b158015611d7057600080fd5b505afa158015611d84573d6000803e3d6000fd5b505050506040513d601f19601f82011682018060405250810190611da89190613d8f565b15611db857600792505050611e7b565b6101f860009054906101000a900473ffffffffffffffffffffffffffffffffffffffff1673ffffffffffffffffffffffffffffffffffffffff1663584b153e826040518263ffffffff1660e01b8152600401611e1491906148fd565b60206040518083038186803b158015611e2c57600080fd5b505afa158015611e40573d6000803e3d6000fd5b505050506040513d601f19601f82011682018060405250810190611e649190613d8f565b15611e7457600592505050611e7b565b6002925050505b919050565b7fc565b045403dc03c2eea82b81a0465edad9e2e7fc4d97e11421c209da93d7a9361012f5482604051611eb4929190614daa565b60405180910390a18061012f8190555050565b6000611ed16113f1565b611ee733600143611ee291906151c3565b6117e6565b1015611f28576040517f08c379a0000000000000000000000000000000000000000000000000000000008152600401611f1f90614a9f565b60405180910390fd5b6000611f3d8686868680519060200120611540565b90508451865114611f83576040517f08c379a0000000000000000000000000000000000000000000000000000000008152600401611f7a90614adf565b60405180910390fd5b8351865114611fc7576040517f08c379a0000000000000000000000000000000000000000000000000000000008152600401611fbe90614adf565b60405180910390fd5b600086511161200b576040517f08c379a000000000000000000000000000000000000000000000000000000000815260040161200290614bbf565b60405180910390fd5b600060fe6000838152602001908152602001600020905061206b816000016040518060200160405290816000820160009054906101000a900467ffffffffffffffff1667ffffffffffffffff1667ffffffffffffffff16815250506130e0565b6120aa576040517f08c379a00000000000000000000000000000000000000000000000000000000081526004016120a190614c7f565b60405180910390fd5b60006120bc6120b7610fb1565b6130fa565b6120c5436130fa565b6120cf91906150fa565b905060006120e36120de610926565b6130fa565b826120ee91906150fa565b9050612106828460000161315190919063ffffffff16565b61211c818460010161315190919063ffffffff16565b7f7d84a6263ae0d98d3329bd7b46bb4e8d6f98cd35a7adb45c274c8b7fd5ebd5e08461214661198e565b8b8b8d5167ffffffffffffffff811115612189577f4e487b7100000000000000000000000000000000000000000000000000000000600052604160045260246000fd5b6040519080825280602002602001820160405280156121bc57816020015b60608152602001906001900390816121a75790505b508c88888e6040516121d699989796959493929190614cfa565b60405180910390a183945050505050949350505050565b7f08f74ea46ef7894f65eabfb5e6e695de773a000b47c529ab559178069b2264016101f860009054906101000a900473ffffffffffffffffffffffffffffffffffffffff1682604051612241929190614758565b60405180910390a1806101f860006101000a81548173ffffffffffffffffffffffffffffffffffffffff021916908373ffffffffffffffffffffffffffffffffffffffff16021790555050565b600061013154905090565b60606122bf848484604051806060016040528060298152602001615bdc60299139613180565b90509392505050565b60006122d3306118bb565b15905090565b600060019054906101000a900460ff16612328576040517f08c379a000000000000000000000000000000000000000000000000000000000815260040161231f90614cbf565b60405180910390fd5b61233981612334611101565b613294565b6123428161330f565b50565b600060019054906101000a900460ff16612394576040517f08c379a000000000000000000000000000000000000000000000000000000000815260040161238b90614cbf565b60405180910390fd5b61239f838383613378565b505050565b600060019054906101000a900460ff166123f3576040517f08c379a00000000000000000000000000000000000000000000000000000000081526004016123ea90614cbf565b60405180910390fd5b565b600060019054906101000a900460ff16612444576040517f08c379a000000000000000000000000000000000000000000000000000000000815260040161243b90614cbf565b60405180910390fd5b61244d816133e7565b50565b600060019054906101000a900460ff1661249f576040517f08c379a000000000000000000000000000000000000000000000000000000000815260040161249690614cbf565b60405180910390fd5b6124a88161347b565b50565b600060019054906101000a900460ff166124fa576040517f08c379a00000000000000000000000000000000000000000000000000000000081526004016124f190614cbf565b60405180910390fd5b612503816134d6565b50565b60008111612549576040517f08c379a000000000000000000000000000000000000000000000000000000000815260040161254090614aff565b60405180910390fd5b7f7e3f7f0708a84de9203036abaa450dccc85ad5ff52f78c170f3edb55cf5e8828610130548260405161257d929190614daa565b60405180910390a1806101308190555050565b600061019360009054906101000a900473ffffffffffffffffffffffffffffffffffffffff1673ffffffffffffffffffffffffffffffffffffffff16633a46b1a884846040518363ffffffff1660e01b81526004016125f0929190614781565b60206040518083038186803b15801561260857600080fd5b505afa15801561261c573d6000803e3d6000fd5b505050506040513d601f19601f820116820180604052508101906126409190613ed3565b905092915050565b7fccb45da8d5717e6c4544694297c4ba5cf151d455c9bb0ed4fc7a38411bc05461610131548260405161267c929190614daa565b60405180910390a1806101318190555050565b6000612699611277565b6126a1611280565b61019360009054906101000a900473ffffffffffffffffffffffffffffffffffffffff1673ffffffffffffffffffffffffffffffffffffffff16638e539e8c856040518263ffffffff1660e01b81526004016126fd9190614cdf565b60206040518083038186803b15801561271557600080fd5b505afa158015612729573d6000803e3d6000fd5b505050506040513d601f19601f8201168201806040525081019061274d9190613ed3565b6127579190615169565b6127619190615138565b9050919050565b60007fbf26d897000000000000000000000000000000000000000000000000000000007bffffffffffffffffffffffffffffffffffffffffffffffffffffffff1916827bffffffffffffffffffffffffffffffffffffffffffffffffffffffff191614806127db57506127da82613531565b5b9050919050565b6101f860009054906101000a900473ffffffffffffffffffffffffffffffffffffffff1673ffffffffffffffffffffffffffffffffffffffff1663e38335e5348686866000876040518763ffffffff1660e01b8152600401612848959493929190614804565b6000604051808303818588803b15801561286157600080fd5b505af1158015612875573d6000803e3d6000fd5b50505050505050505050565b60006128bc7f8b73c3c69bb8fe3d512ecc4cf759cc79239f7b179b0ffacaa9a75d522b39400f6128af61359b565b6128b76135a5565b6135af565b905090565b600082826040516020016128d6929190614706565b60405160208183030381529060405280519060200120905092915050565b6000807f7fffffffffffffffffffffffffffffff5d576e7357a4501ddfe92f46681b20a08360001c111561292f5760006003915091506129f8565b601b8560ff16141580156129475750601c8560ff1614155b156129595760006004915091506129f8565b60006001878787876040516000815260200160405260405161297e94939291906149a2565b6020604051602081039080840390855afa1580156129a0573d6000803e3d6000fd5b505050602060405103519050600073ffffffffffffffffffffffffffffffffffffffff168173ffffffffffffffffffffffffffffffffffffffff1614156129ef576000600192509250506129f8565b80600092509250505b94509492505050565b60006004811115612a3b577f4e487b7100000000000000000000000000000000000000000000000000000000600052602160045260246000fd5b816004811115612a74577f4e487b7100000000000000000000000000000000000000000000000000000000600052602160045260246000fd5b1415612a7f57612d4f565b60016004811115612ab9577f4e487b7100000000000000000000000000000000000000000000000000000000600052602160045260246000fd5b816004811115612af2577f4e487b7100000000000000000000000000000000000000000000000000000000600052602160045260246000fd5b1415612b33576040517f08c379a0000000000000000000000000000000000000000000000000000000008152600401612b2a90614a3f565b60405180910390fd5b60026004811115612b6d577f4e487b7100000000000000000000000000000000000000000000000000000000600052602160045260246000fd5b816004811115612ba6577f4e487b7100000000000000000000000000000000000000000000000000000000600052602160045260246000fd5b1415612be7576040517f08c379a0000000000000000000000000000000000000000000000000000000008152600401612bde90614abf565b60405180910390fd5b60036004811115612c21577f4e487b7100000000000000000000000000000000000000000000000000000000600052602160045260246000fd5b816004811115612c5a577f4e487b7100000000000000000000000000000000000000000000000000000000600052602160045260246000fd5b1415612c9b576040517f08c379a0000000000000000000000000000000000000000000000000000000008152600401612c9290614b1f565b60405180910390fd5b600480811115612cd4577f4e487b7100000000000000000000000000000000000000000000000000000000600052602160045260246000fd5b816004811115612d0d577f4e487b7100000000000000000000000000000000000000000000000000000000600052602160045260246000fd5b1415612d4e576040517f08c379a0000000000000000000000000000000000000000000000000000000008152600401612d4590614bdf565b60405180910390fd5b5b50565b6000610161600086815260200190815260200160002090508060030160008573ffffffffffffffffffffffffffffffffffffffff1673ffffffffffffffffffffffffffffffffffffffff16815260200190815260200160002060009054906101000a900460ff1615612df9576040517f08c379a0000000000000000000000000000000000000000000000000000000008152600401612df090614b3f565b60405180910390fd5b60018160030160008673ffffffffffffffffffffffffffffffffffffffff1673ffffffffffffffffffffffffffffffffffffffff16815260200190815260200160002060006101000a81548160ff02191690831515021790555060006002811115612e8d577f4e487b7100000000000000000000000000000000000000000000000000000000600052602160045260246000fd5b60ff168360ff161415612eba5781816000016000828254612eae91906150a4565b92505081905550612fc4565b60016002811115612ef4577f4e487b7100000000000000000000000000000000000000000000000000000000600052602160045260246000fd5b60ff168360ff161415612f215781816001016000828254612f1591906150a4565b92505081905550612fc3565b600280811115612f5a577f4e487b7100000000000000000000000000000000000000000000000000000000600052602160045260246000fd5b60ff168360ff161415612f875781816002016000828254612f7b91906150a4565b92505081905550612fc2565b6040517f08c379a0000000000000000000000000000000000000000000000000000000008152600401612fb990614c5f565b60405180910390fd5b5b5b5050505050565b60008060fe600084815260200190815260200160002090508060020160009054906101000a900460ff16156130045760079150506130db565b8060020160019054906101000a900460ff16156130255760029150506130db565b600061303084610f43565b90506000811415613076576040517f08c379a000000000000000000000000000000000000000000000000000000000815260040161306d90614c3f565b60405180910390fd5b438110613088576000925050506130db565b600061309385611400565b90504381106130a857600193505050506130db565b6130b1856135e9565b80156130c257506130c185613631565b5b156130d357600493505050506130db565b600393505050505b919050565b600080826000015167ffffffffffffffff16149050919050565b600067ffffffffffffffff8016821115613149576040517f08c379a000000000000000000000000000000000000000000000000000000000815260040161314090614bff565b60405180910390fd5b819050919050565b808260000160006101000a81548167ffffffffffffffff021916908367ffffffffffffffff1602179055505050565b6060824710156131c5576040517f08c379a00000000000000000000000000000000000000000000000000000000081526004016131bc90614b5f565b60405180910390fd5b6131ce856118bb565b61320d576040517f08c379a000000000000000000000000000000000000000000000000000000000815260040161320490614c9f565b60405180910390fd5b6000808673ffffffffffffffffffffffffffffffffffffffff16858760405161323691906146ef565b60006040518083038185875af1925050503d8060008114613273576040519150601f19603f3d011682016040523d82523d6000602084013e613278565b606091505b509150915061328882828661365d565b92505050949350505050565b600060019054906101000a900460ff166132e3576040517f08c379a00000000000000000000000000000000000000000000000000000000081526004016132da90614cbf565b60405180910390fd5b600082805190602001209050600082805190602001209050816065819055508060668190555050505050565b600060019054906101000a900460ff1661335e576040517f08c379a000000000000000000000000000000000000000000000000000000000815260040161335590614cbf565b60405180910390fd5b8060fd90805190602001906133749291906136c4565b5050565b600060019054906101000a900460ff166133c7576040517f08c379a00000000000000000000000000000000000000000000000000000000081526004016133be90614cbf565b60405180910390fd5b6133d083611e80565b6133d982612506565b6133e281612648565b505050565b600060019054906101000a900460ff16613436576040517f08c379a000000000000000000000000000000000000000000000000000000000815260040161342d90614cbf565b60405180910390fd5b8061019360006101000a81548173ffffffffffffffffffffffffffffffffffffffff021916908373ffffffffffffffffffffffffffffffffffffffff16021790555050565b600060019054906101000a900460ff166134ca576040517f08c379a00000000000000000000000000000000000000000000000000000000081526004016134c190614cbf565b60405180910390fd5b6134d381611996565b50565b600060019054906101000a900460ff16613525576040517f08c379a000000000000000000000000000000000000000000000000000000000815260040161351c90614cbf565b60405180910390fd5b61352e816121ed565b50565b60007f01ffc9a7000000000000000000000000000000000000000000000000000000007bffffffffffffffffffffffffffffffffffffffffffffffffffffffff1916827bffffffffffffffffffffffffffffffffffffffffffffffffffffffff1916149050919050565b6000606554905090565b6000606654905090565b600083838346306040516020016135ca959493929190614918565b6040516020818303038152906040528051906020012090509392505050565b600080610161600084815260200190815260200160002090508060020154816001015461361691906150a4565b61362761362285610f43565b611882565b1115915050919050565b600080610161600084815260200190815260200160002090508060000154816001015411915050919050565b6060831561366d578290506136bd565b6000835111156136805782518084602001fd5b816040517f08c379a00000000000000000000000000000000000000000000000000000000081526004016136b49190614a1d565b60405180910390fd5b9392505050565b8280546136d09061538d565b90600052602060002090601f0160209004810192826136f25760008555613739565b82601f1061370b57805160ff1916838001178555613739565b82800160010185558215613739579182015b8281111561373857825182559160200191906001019061371d565b5b509050613746919061374a565b5090565b5b8082111561376357600081600090555060010161374b565b5090565b600061377a61377584614e7b565b614e56565b9050808382526020820190508285602086028201111561379957600080fd5b60005b858110156137c957816137af8882613941565b84526020840193506020830192505060018101905061379c565b5050509392505050565b60006137e66137e184614ea7565b614e56565b9050808382526020820190508285602086028201111561380557600080fd5b60005b8581101561384f57813567ffffffffffffffff81111561382757600080fd5b8086016138348982613a72565b85526020850194506020840193505050600181019050613808565b5050509392505050565b600061386c61386784614ed3565b614e56565b9050808382526020820190508285602086028201111561388b57600080fd5b60005b858110156138bb57816138a18882613b3a565b84526020840193506020830192505060018101905061388e565b5050509392505050565b60006138d86138d384614eff565b614e56565b9050828152602081018484840111156138f057600080fd5b6138fb84828561534b565b509392505050565b600061391661391184614f30565b614e56565b90508281526020810184848401111561392e57600080fd5b61393984828561534b565b509392505050565b60008135905061395081615b23565b92915050565b600082601f83011261396757600080fd5b8135613977848260208601613767565b91505092915050565b600082601f83011261399157600080fd5b81356139a18482602086016137d3565b91505092915050565b600082601f8301126139bb57600080fd5b81356139cb848260208601613859565b91505092915050565b6000815190506139e381615b3a565b92915050565b6000813590506139f881615b51565b92915050565b600081519050613a0d81615b51565b92915050565b600081359050613a2281615b68565b92915050565b60008083601f840112613a3a57600080fd5b8235905067ffffffffffffffff811115613a5357600080fd5b602083019150836001820283011115613a6b57600080fd5b9250929050565b600082601f830112613a8357600080fd5b8135613a938482602086016138c5565b91505092915050565b600081359050613aab81615b7f565b92915050565b600081359050613ac081615b96565b92915050565b60008083601f840112613ad857600080fd5b8235905067ffffffffffffffff811115613af157600080fd5b602083019150836001820283011115613b0957600080fd5b9250929050565b600082601f830112613b2157600080fd5b8135613b31848260208601613903565b91505092915050565b600081359050613b4981615bad565b92915050565b600081519050613b5e81615bad565b92915050565b600081359050613b7381615bc4565b92915050565b60008060408385031215613b8c57600080fd5b6000613b9a85828601613941565b9250506020613bab85828601613b3a565b9150509250929050565b60008060008060608587031215613bcb57600080fd5b6000613bd987828801613941565b9450506020613bea87828801613b3a565b935050604085013567ffffffffffffffff811115613c0757600080fd5b613c1387828801613a28565b925092505092959194509250565b60008060008060808587031215613c3757600080fd5b600085013567ffffffffffffffff811115613c5157600080fd5b613c5d87828801613956565b945050602085013567ffffffffffffffff811115613c7a57600080fd5b613c86878288016139aa565b935050604085013567ffffffffffffffff811115613ca357600080fd5b613caf87828801613980565b9250506060613cc0878288016139e9565b91505092959194509250565b60008060008060808587031215613ce257600080fd5b600085013567ffffffffffffffff811115613cfc57600080fd5b613d0887828801613956565b945050602085013567ffffffffffffffff811115613d2557600080fd5b613d31878288016139aa565b935050604085013567ffffffffffffffff811115613d4e57600080fd5b613d5a87828801613980565b925050606085013567ffffffffffffffff811115613d7757600080fd5b613d8387828801613b10565b91505092959194509250565b600060208284031215613da157600080fd5b6000613daf848285016139d4565b91505092915050565b600060208284031215613dca57600080fd5b6000613dd8848285016139fe565b91505092915050565b600060208284031215613df357600080fd5b6000613e0184828501613a13565b91505092915050565b600080600080600060a08688031215613e2257600080fd5b6000613e3088828901613a9c565b9550506020613e4188828901613ab1565b9450506040613e5288828901613b3a565b9350506060613e6388828901613b3a565b9250506080613e7488828901613b3a565b9150509295509295909350565b600060208284031215613e9357600080fd5b6000613ea184828501613ab1565b91505092915050565b600060208284031215613ebc57600080fd5b6000613eca84828501613b3a565b91505092915050565b600060208284031215613ee557600080fd5b6000613ef384828501613b4f565b91505092915050565b60008060408385031215613f0f57600080fd5b6000613f1d85828601613b3a565b9250506020613f2e85828601613941565b9150509250929050565b60008060408385031215613f4b57600080fd5b6000613f5985828601613b3a565b9250506020613f6a85828601613b64565b9150509250929050565b60008060008060608587031215613f8a57600080fd5b6000613f9887828801613b3a565b9450506020613fa987828801613b64565b935050604085013567ffffffffffffffff811115613fc657600080fd5b613fd287828801613ac6565b925092505092959194509250565b600080600080600060a08688031215613ff857600080fd5b600061400688828901613b3a565b955050602061401788828901613b64565b945050604061402888828901613b64565b9350506060614039888289016139e9565b925050608061404a888289016139e9565b9150509295509295909350565b600061406383836140af565b60208301905092915050565b600061407b83836142a8565b905092915050565b600061408f838361433f565b905092915050565b60006140a383836146b3565b60208301905092915050565b6140b8816151f7565b82525050565b6140c7816151f7565b82525050565b60006140d882614fa1565b6140e28185615017565b93506140ed83614f61565b8060005b8381101561411e5781516141058882614057565b975061411083614fe3565b9250506001810190506140f1565b5085935050505092915050565b600061413682614fac565b6141408185615028565b93508360208202850161415285614f71565b8060005b8581101561418e578484038952815161416f858261406f565b945061417a83614ff0565b925060208a01995050600181019050614156565b50829750879550505050505092915050565b60006141ab82614fb7565b6141b58185615039565b9350836020820285016141c785614f81565b8060005b8581101561420357848403895281516141e48582614083565b94506141ef83614ffd565b925060208a019950506001810190506141cb565b50829750879550505050505092915050565b600061422082614fc2565b61422a818561504a565b935061423583614f91565b8060005b8381101561426657815161424d8882614097565b97506142588361500a565b925050600181019050614239565b5085935050505092915050565b61427c8161521b565b82525050565b61428b81615227565b82525050565b6142a261429d82615227565b6153f0565b82525050565b60006142b382614fcd565b6142bd818561505b565b93506142cd81856020860161535a565b6142d6816154e5565b840191505092915050565b60006142ec82614fcd565b6142f6818561506c565b935061430681856020860161535a565b80840191505092915050565b61431b816152e9565b82525050565b61432a8161530d565b82525050565b6143398161531f565b82525050565b600061434a82614fd8565b6143548185615077565b935061436481856020860161535a565b61436d816154e5565b840191505092915050565b600061438382614fd8565b61438d8185615088565b935061439d81856020860161535a565b6143a6816154e5565b840191505092915050565b60006143be601883615088565b91506143c982615503565b602082019050919050565b60006143e1601883615088565b91506143ec8261552c565b602082019050919050565b6000614404604383615088565b915061440f82615555565b606082019050919050565b6000614427604383615088565b9150614432826155ca565b606082019050919050565b600061444a601f83615088565b91506144558261563f565b602082019050919050565b600061446d600283615099565b915061447882615668565b600282019050919050565b6000614490602183615088565b915061449b82615691565b604082019050919050565b60006144b3602783615088565b91506144be826156e0565b604082019050919050565b60006144d6602283615088565b91506144e18261572f565b604082019050919050565b60006144f9602783615088565b91506145048261577e565b604082019050919050565b600061451c602683615088565b9150614527826157cd565b604082019050919050565b600061453f602383615088565b915061454a8261581c565b604082019050919050565b6000614562602e83615088565b915061456d8261586b565b604082019050919050565b6000614585601883615088565b9150614590826158ba565b602082019050919050565b60006145a8602283615088565b91506145b3826158e3565b604082019050919050565b60006145cb602683615088565b91506145d682615932565b604082019050919050565b60006145ee602183615088565b91506145f982615981565b604082019050919050565b6000614611601d83615088565b915061461c826159d0565b602082019050919050565b6000614634603583615088565b915061463f826159f9565b604082019050919050565b6000614657602183615088565b915061466282615a48565b604082019050919050565b600061467a601d83615088565b915061468582615a97565b602082019050919050565b600061469d602b83615088565b91506146a882615ac0565b604082019050919050565b6146bc816152be565b82525050565b6146cb816152be565b82525050565b6146da81615339565b82525050565b6146e9816152dc565b82525050565b60006146fb82846142e1565b915081905092915050565b600061471182614460565b915061471d8285614291565b60208201915061472d8284614291565b6020820191508190509392505050565b600060208201905061475260008301846140be565b92915050565b600060408201905061476d60008301856140be565b61477a60208301846140be565b9392505050565b600060408201905061479660008301856140be565b6147a360208301846146c2565b9392505050565b600060808201905081810360008301526147c481876140cd565b905081810360208301526147d88186614215565b905081810360408301526147ec818561412b565b90506147fb6060830184614282565b95945050505050565b600060a082019050818103600083015261481e81886140cd565b905081810360208301526148328187614215565b90508181036040830152614846818661412b565b90506148556060830185614330565b6148626080830184614282565b9695505050505050565b600060c082019050818103600083015261488681896140cd565b9050818103602083015261489a8188614215565b905081810360408301526148ae818761412b565b90506148bd6060830186614330565b6148ca6080830185614282565b6148d760a08301846146c2565b979650505050505050565b60006020820190506148f76000830184614273565b92915050565b60006020820190506149126000830184614282565b92915050565b600060a08201905061492d6000830188614282565b61493a6020830187614282565b6149476040830186614282565b61495460608301856146c2565b61496160808301846140be565b9695505050505050565b60006060820190506149806000830186614282565b61498d60208301856146c2565b61499a60408301846146e0565b949350505050565b60006080820190506149b76000830187614282565b6149c460208301866146e0565b6149d16040830185614282565b6149de6060830184614282565b95945050505050565b60006020820190506149fc6000830184614312565b92915050565b6000602082019050614a176000830184614321565b92915050565b60006020820190508181036000830152614a378184614378565b905092915050565b60006020820190508181036000830152614a58816143b1565b9050919050565b60006020820190508181036000830152614a78816143d4565b9050919050565b60006020820190508181036000830152614a98816143f7565b9050919050565b60006020820190508181036000830152614ab88161441a565b9050919050565b60006020820190508181036000830152614ad88161443d565b9050919050565b60006020820190508181036000830152614af881614483565b9050919050565b60006020820190508181036000830152614b18816144a6565b9050919050565b60006020820190508181036000830152614b38816144c9565b9050919050565b60006020820190508181036000830152614b58816144ec565b9050919050565b60006020820190508181036000830152614b788161450f565b9050919050565b60006020820190508181036000830152614b9881614532565b9050919050565b60006020820190508181036000830152614bb881614555565b9050919050565b60006020820190508181036000830152614bd881614578565b9050919050565b60006020820190508181036000830152614bf88161459b565b9050919050565b60006020820190508181036000830152614c18816145be565b9050919050565b60006020820190508181036000830152614c38816145e1565b9050919050565b60006020820190508181036000830152614c5881614604565b9050919050565b60006020820190508181036000830152614c7881614627565b9050919050565b60006020820190508181036000830152614c988161464a565b9050919050565b60006020820190508181036000830152614cb88161466d565b9050919050565b60006020820190508181036000830152614cd881614690565b9050919050565b6000602082019050614cf460008301846146c2565b92915050565b600061012082019050614d10600083018c6146c2565b614d1d602083018b6140be565b8181036040830152614d2f818a6140cd565b90508181036060830152614d438189614215565b90508181036080830152614d5781886141a0565b905081810360a0830152614d6b818761412b565b9050614d7a60c08301866146d1565b614d8760e08301856146d1565b818103610100830152614d9a8184614378565b90509a9950505050505050505050565b6000604082019050614dbf60008301856146c2565b614dcc60208301846146c2565b9392505050565b6000606082019050614de860008301866146c2565b614df560208301856146c2565b614e0260408301846146c2565b949350505050565b6000608082019050614e1f60008301876146c2565b614e2c60208301866146e0565b614e3960408301856146c2565b8181036060830152614e4b8184614378565b905095945050505050565b6000614e60614e71565b9050614e6c82826153bf565b919050565b6000604051905090565b600067ffffffffffffffff821115614e9657614e956154b6565b5b602082029050602081019050919050565b600067ffffffffffffffff821115614ec257614ec16154b6565b5b602082029050602081019050919050565b600067ffffffffffffffff821115614eee57614eed6154b6565b5b602082029050602081019050919050565b600067ffffffffffffffff821115614f1a57614f196154b6565b5b614f23826154e5565b9050602081019050919050565b600067ffffffffffffffff821115614f4b57614f4a6154b6565b5b614f54826154e5565b9050602081019050919050565b6000819050602082019050919050565b6000819050602082019050919050565b6000819050602082019050919050565b6000819050602082019050919050565b600081519050919050565b600081519050919050565b600081519050919050565b600081519050919050565b600081519050919050565b600081519050919050565b6000602082019050919050565b6000602082019050919050565b6000602082019050919050565b6000602082019050919050565b600082825260208201905092915050565b600082825260208201905092915050565b600082825260208201905092915050565b600082825260208201905092915050565b600082825260208201905092915050565b600081905092915050565b600082825260208201905092915050565b600082825260208201905092915050565b600081905092915050565b60006150af826152be565b91506150ba836152be565b9250827fffffffffffffffffffffffffffffffffffffffffffffffffffffffffffffffff038211156150ef576150ee6153fa565b5b828201905092915050565b6000615105826152c8565b9150615110836152c8565b92508267ffffffffffffffff0382111561512d5761512c6153fa565b5b828201905092915050565b6000615143826152be565b915061514e836152be565b92508261515e5761515d615429565b5b828204905092915050565b6000615174826152be565b915061517f836152be565b9250817fffffffffffffffffffffffffffffffffffffffffffffffffffffffffffffffff04831182151516156151b8576151b76153fa565b5b828202905092915050565b60006151ce826152be565b91506151d9836152be565b9250828210156151ec576151eb6153fa565b5b828203905092915050565b60006152028261529e565b9050919050565b60006152148261529e565b9050919050565b60008115159050919050565b6000819050919050565b60007fffffffff0000000000000000000000000000000000000000000000000000000082169050919050565b6000615268826151f7565b9050919050565b600061527a82615209565b9050919050565b600081905061528f82615b0f565b919050565b6000819050919050565b600073ffffffffffffffffffffffffffffffffffffffff82169050919050565b6000819050919050565b600067ffffffffffffffff82169050919050565b600060ff82169050919050565b60006152f4826152fb565b9050919050565b60006153068261529e565b9050919050565b600061531882615281565b9050919050565b600061533261532d83615294565b6154f6565b9050919050565b6000615344826152c8565b9050919050565b82818337600083830152505050565b60005b8381101561537857808201518184015260208101905061535d565b83811115615387576000848401525b50505050565b600060028204905060018216806153a557607f821691505b602082108114156153b9576153b8615487565b5b50919050565b6153c8826154e5565b810181811067ffffffffffffffff821117156153e7576153e66154b6565b5b80604052505050565b6000819050919050565b7f4e487b7100000000000000000000000000000000000000000000000000000000600052601160045260246000fd5b7f4e487b7100000000000000000000000000000000000000000000000000000000600052601260045260246000fd5b7f4e487b7100000000000000000000000000000000000000000000000000000000600052602160045260246000fd5b7f4e487b7100000000000000000000000000000000000000000000000000000000600052602260045260246000fd5b7f4e487b7100000000000000000000000000000000000000000000000000000000600052604160045260246000fd5b6000601f19601f8301169050919050565b60008160001b9050919050565b7f45434453413a20696e76616c6964207369676e61747572650000000000000000600082015250565b7f476f7665726e6f723a206f6e6c79476f7665726e616e63650000000000000000600082015250565b7f476f7665726e6f72566f74657351756f72756d4672616374696f6e3a2071756f60008201527f72756d4e756d657261746f72206f7665722071756f72756d44656e6f6d696e6160208201527f746f720000000000000000000000000000000000000000000000000000000000604082015250565b7f476f7665726e6f72436f6d7061746962696c697479427261766f3a2070726f7060008201527f6f73657220766f7465732062656c6f772070726f706f73616c2074687265736860208201527f6f6c640000000000000000000000000000000000000000000000000000000000604082015250565b7f45434453413a20696e76616c6964207369676e6174757265206c656e67746800600082015250565b7f1901000000000000000000000000000000000000000000000000000000000000600082015250565b7f476f7665726e6f723a20696e76616c69642070726f706f73616c206c656e677460008201527f6800000000000000000000000000000000000000000000000000000000000000602082015250565b7f476f7665726e6f7253657474696e67733a20766f74696e6720706572696f642060008201527f746f6f206c6f7700000000000000000000000000000000000000000000000000602082015250565b7f45434453413a20696e76616c6964207369676e6174757265202773272076616c60008201527f7565000000000000000000000000000000000000000000000000000000000000602082015250565b7f476f7665726e6f72566f74696e6753696d706c653a20766f746520616c72656160008201527f6479206361737400000000000000000000000000000000000000000000000000602082015250565b7f416464726573733a20696e73756666696369656e742062616c616e636520666f60008201527f722063616c6c0000000000000000000000000000000000000000000000000000602082015250565b7f476f7665726e6f723a20766f7465206e6f742063757272656e746c792061637460008201527f6976650000000000000000000000000000000000000000000000000000000000602082015250565b7f496e697469616c697a61626c653a20636f6e747261637420697320616c72656160008201527f647920696e697469616c697a6564000000000000000000000000000000000000602082015250565b7f476f7665726e6f723a20656d7074792070726f706f73616c0000000000000000600082015250565b7f45434453413a20696e76616c6964207369676e6174757265202776272076616c60008201527f7565000000000000000000000000000000000000000000000000000000000000602082015250565b7f53616665436173743a2076616c756520646f65736e27742066697420696e203660008201527f3420626974730000000000000000000000000000000000000000000000000000602082015250565b7f476f7665726e6f723a2070726f706f73616c206e6f742073756363657373667560008201527f6c00000000000000000000000000000000000000000000000000000000000000602082015250565b7f476f7665726e6f723a20756e6b6e6f776e2070726f706f73616c206964000000600082015250565b7f476f7665726e6f72566f74696e6753696d706c653a20696e76616c696420766160008201527f6c756520666f7220656e756d20566f7465547970650000000000000000000000602082015250565b7f476f7665726e6f723a2070726f706f73616c20616c726561647920657869737460008201527f7300000000000000000000000000000000000000000000000000000000000000602082015250565b7f416464726573733a2063616c6c20746f206e6f6e2d636f6e7472616374000000600082015250565b7f496e697469616c697a61626c653a20636f6e7472616374206973206e6f74206960008201527f6e697469616c697a696e67000000000000000000000000000000000000000000602082015250565b60088110615b2057615b1f615458565b5b50565b615b2c816151f7565b8114615b3757600080fd5b50565b615b438161521b565b8114615b4e57600080fd5b50565b615b5a81615227565b8114615b6557600080fd5b50565b615b7181615231565b8114615b7c57600080fd5b50565b615b888161525d565b8114615b9357600080fd5b50565b615b9f8161526f565b8114615baa57600080fd5b50565b615bb6816152be565b8114615bc157600080fd5b50565b615bcd816152dc565b8114615bd857600080fd5b5056fe416464726573733a206c6f772d6c6576656c2063616c6c20776974682076616c7565206661696c6564a2646970667358221220c5a2c111080c2396424892e69ecd73ec8f642fe4528e6ef04eafcf09eae0a47464736f6c63430008040033",
  "devdoc": {
    "custom:security-contact": "dev.mosinas@gmail.com",
    "kind": "dev",
    "methods": {
      "COUNTING_MODE()": {
        "details": "See {IGovernor-COUNTING_MODE}."
      },
      "castVote(uint256,uint8)": {
        "details": "See {IGovernor-castVote}."
      },
      "castVoteBySig(uint256,uint8,uint8,bytes32,bytes32)": {
        "details": "See {IGovernor-castVoteBySig}."
      },
      "castVoteWithReason(uint256,uint8,string)": {
        "details": "See {IGovernor-castVoteWithReason}."
      },
      "constructor": {
        "custom:oz-upgrades-unsafe-allow": "constructor"
      },
      "execute(address[],uint256[],bytes[],bytes32)": {
        "details": "See {IGovernor-execute}."
      },
      "hasVoted(uint256,address)": {
        "details": "See {IGovernor-hasVoted}."
      },
      "hashProposal(address[],uint256[],bytes[],bytes32)": {
        "details": "See {IGovernor-hashProposal}. The proposal id is produced by hashing the RLC encoded `targets` array, the `values` array, the `calldatas` array and the descriptionHash (bytes32 which itself is the keccak256 hash of the description string). This proposal id can be produced from the proposal data which is part of the {ProposalCreated} event. It can even be computed in advance, before the proposal is submitted. Note that the chainId and the governor address are not part of the proposal id computation. Consequently, the same proposal (with same operation and same description) will have the same id if submitted on multiple governors accross multiple networks. This also means that in order to execute the same operation twice (on the same governor) the proposer will have to change the description in order to avoid proposal id conflicts."
      },
      "name()": {
        "details": "See {IGovernor-name}."
      },
      "proposalDeadline(uint256)": {
        "details": "See {IGovernor-proposalDeadline}."
      },
      "proposalEta(uint256)": {
        "details": "Public accessor to check the eta of a queued proposal"
      },
      "proposalSnapshot(uint256)": {
        "details": "See {IGovernor-proposalSnapshot}."
      },
      "proposalVotes(uint256)": {
        "details": "Accessor to the internal vote counts."
      },
      "queue(address[],uint256[],bytes[],bytes32)": {
        "details": "Function to queue a proposal to the timelock."
      },
      "quorumDenominator()": {
        "details": "Returns the quorum denominator. Defaults to 100, but may be overridden."
      },
      "quorumNumerator()": {
        "details": "Returns the current quorum numerator. See {quorumDenominator}."
      },
      "relay(address,uint256,bytes)": {
        "details": "Relays a transaction or function call to an arbitrary target. In cases where the governance executor is some contract other than the governor itself, like when using a timelock, this function can be invoked in a governance proposal to recover tokens or Ether that was sent to the governor contract by mistake. Note that if the executor is simply the governor itself, use of `relay` is redundant."
      },
      "setProposalThreshold(uint256)": {
        "details": "Update the proposal threshold. This operation can only be performed through a governance proposal. Emits a {ProposalThresholdSet} event."
      },
      "setVotingDelay(uint256)": {
        "details": "Update the voting delay. This operation can only be performed through a governance proposal. Emits a {VotingDelaySet} event."
      },
      "setVotingPeriod(uint256)": {
        "details": "Update the voting period. This operation can only be performed through a governance proposal. Emits a {VotingPeriodSet} event."
      },
      "timelock()": {
        "details": "Public accessor to check the address of the timelock"
      },
      "updateQuorumNumerator(uint256)": {
        "details": "Changes the quorum numerator. Emits a {QuorumNumeratorUpdated} event. Requirements: - Must be called through a governance proposal. - New numerator must be smaller or equal to the denominator."
      },
      "updateTimelock(address)": {
        "details": "Public endpoint to update the underlying timelock instance. Restricted to the timelock itself, so updates must be proposed, scheduled, and executed through governance proposals. CAUTION: It is not recommended to change the timelock while there are other queued governance proposals."
      },
      "version()": {
        "details": "See {IGovernor-version}."
      }
    },
    "version": 1
  },
  "userdoc": {
    "kind": "user",
    "methods": {},
    "version": 1
  },
  "storageLayout": {
    "storage": [
      {
        "astId": 3532,
        "contract": "contracts/GovernorContract.sol:ConvernorContract",
        "label": "_initialized",
        "offset": 0,
        "slot": "0",
        "type": "t_bool"
      },
      {
        "astId": 3535,
        "contract": "contracts/GovernorContract.sol:ConvernorContract",
        "label": "_initializing",
        "offset": 1,
        "slot": "0",
        "type": "t_bool"
      },
      {
        "astId": 3883,
        "contract": "contracts/GovernorContract.sol:ConvernorContract",
        "label": "__gap",
        "offset": 0,
        "slot": "1",
        "type": "t_array(t_uint256)50_storage"
      },
      {
        "astId": 4901,
        "contract": "contracts/GovernorContract.sol:ConvernorContract",
        "label": "__gap",
        "offset": 0,
        "slot": "51",
        "type": "t_array(t_uint256)50_storage"
      },
      {
        "astId": 4717,
        "contract": "contracts/GovernorContract.sol:ConvernorContract",
        "label": "_HASHED_NAME",
        "offset": 0,
        "slot": "101",
        "type": "t_bytes32"
      },
      {
        "astId": 4719,
        "contract": "contracts/GovernorContract.sol:ConvernorContract",
        "label": "_HASHED_VERSION",
        "offset": 0,
        "slot": "102",
        "type": "t_bytes32"
      },
      {
        "astId": 4857,
        "contract": "contracts/GovernorContract.sol:ConvernorContract",
        "label": "__gap",
        "offset": 0,
        "slot": "103",
        "type": "t_array(t_uint256)50_storage"
      },
      {
        "astId": 1534,
        "contract": "contracts/GovernorContract.sol:ConvernorContract",
        "label": "__gap",
        "offset": 0,
        "slot": "153",
        "type": "t_array(t_uint256)50_storage"
      },
      {
        "astId": 3446,
        "contract": "contracts/GovernorContract.sol:ConvernorContract",
        "label": "__gap",
        "offset": 0,
        "slot": "203",
        "type": "t_array(t_uint256)50_storage"
      },
      {
        "astId": 448,
        "contract": "contracts/GovernorContract.sol:ConvernorContract",
        "label": "_name",
        "offset": 0,
        "slot": "253",
        "type": "t_string_storage"
      },
      {
        "astId": 453,
        "contract": "contracts/GovernorContract.sol:ConvernorContract",
        "label": "_proposals",
        "offset": 0,
        "slot": "254",
        "type": "t_mapping(t_uint256,t_struct(ProposalCore)446_storage)"
      },
      {
        "astId": 1278,
        "contract": "contracts/GovernorContract.sol:ConvernorContract",
        "label": "__gap",
        "offset": 0,
        "slot": "255",
        "type": "t_array(t_uint256)48_storage"
      },
      {
        "astId": 2599,
        "contract": "contracts/GovernorContract.sol:ConvernorContract",
        "label": "_votingDelay",
        "offset": 0,
        "slot": "303",
        "type": "t_uint256"
      },
      {
        "astId": 2601,
        "contract": "contracts/GovernorContract.sol:ConvernorContract",
        "label": "_votingPeriod",
        "offset": 0,
        "slot": "304",
        "type": "t_uint256"
      },
      {
        "astId": 2603,
        "contract": "contracts/GovernorContract.sol:ConvernorContract",
        "label": "_proposalThreshold",
        "offset": 0,
        "slot": "305",
        "type": "t_uint256"
      },
      {
        "astId": 2793,
        "contract": "contracts/GovernorContract.sol:ConvernorContract",
        "label": "__gap",
        "offset": 0,
        "slot": "306",
        "type": "t_array(t_uint256)47_storage"
      },
      {
        "astId": 2385,
        "contract": "contracts/GovernorContract.sol:ConvernorContract",
        "label": "_proposalVotes",
        "offset": 0,
        "slot": "353",
        "type": "t_mapping(t_uint256,t_struct(ProposalVote)2380_storage)"
      },
      {
        "astId": 2587,
        "contract": "contracts/GovernorContract.sol:ConvernorContract",
        "label": "__gap",
        "offset": 0,
        "slot": "354",
        "type": "t_array(t_uint256)49_storage"
      },
      {
        "astId": 3336,
        "contract": "contracts/GovernorContract.sol:ConvernorContract",
        "label": "token",
        "offset": 0,
        "slot": "403",
        "type": "t_contract(IVotesUpgradeable)3525"
      },
      {
        "astId": 3385,
        "contract": "contracts/GovernorContract.sol:ConvernorContract",
        "label": "__gap",
        "offset": 0,
        "slot": "404",
        "type": "t_array(t_uint256)50_storage"
      },
      {
        "astId": 3205,
        "contract": "contracts/GovernorContract.sol:ConvernorContract",
        "label": "_quorumNumerator",
        "offset": 0,
        "slot": "454",
        "type": "t_uint256"
      },
      {
        "astId": 3322,
        "contract": "contracts/GovernorContract.sol:ConvernorContract",
        "label": "__gap",
        "offset": 0,
        "slot": "455",
        "type": "t_array(t_uint256)49_storage"
      },
      {
        "astId": 2810,
        "contract": "contracts/GovernorContract.sol:ConvernorContract",
        "label": "_timelock",
        "offset": 0,
        "slot": "504",
        "type": "t_contract(TimelockControllerUpgradeable)2344"
      },
      {
        "astId": 2814,
        "contract": "contracts/GovernorContract.sol:ConvernorContract",
        "label": "_timelockIds",
        "offset": 0,
        "slot": "505",
        "type": "t_mapping(t_uint256,t_bytes32)"
      },
      {
        "astId": 3193,
        "contract": "contracts/GovernorContract.sol:ConvernorContract",
        "label": "__gap",
        "offset": 0,
        "slot": "506",
        "type": "t_array(t_uint256)48_storage"
      }
    ],
    "types": {
      "t_address": {
        "encoding": "inplace",
        "label": "address",
        "numberOfBytes": "20"
      },
      "t_array(t_uint256)47_storage": {
        "base": "t_uint256",
        "encoding": "inplace",
        "label": "uint256[47]",
        "numberOfBytes": "1504"
      },
      "t_array(t_uint256)48_storage": {
        "base": "t_uint256",
        "encoding": "inplace",
        "label": "uint256[48]",
        "numberOfBytes": "1536"
      },
      "t_array(t_uint256)49_storage": {
        "base": "t_uint256",
        "encoding": "inplace",
        "label": "uint256[49]",
        "numberOfBytes": "1568"
      },
      "t_array(t_uint256)50_storage": {
        "base": "t_uint256",
        "encoding": "inplace",
        "label": "uint256[50]",
        "numberOfBytes": "1600"
      },
      "t_bool": {
        "encoding": "inplace",
        "label": "bool",
        "numberOfBytes": "1"
      },
      "t_bytes32": {
        "encoding": "inplace",
        "label": "bytes32",
        "numberOfBytes": "32"
      },
      "t_contract(IVotesUpgradeable)3525": {
        "encoding": "inplace",
        "label": "contract IVotesUpgradeable",
        "numberOfBytes": "20"
      },
      "t_contract(TimelockControllerUpgradeable)2344": {
        "encoding": "inplace",
        "label": "contract TimelockControllerUpgradeable",
        "numberOfBytes": "20"
      },
      "t_mapping(t_address,t_bool)": {
        "encoding": "mapping",
        "key": "t_address",
        "label": "mapping(address => bool)",
        "numberOfBytes": "32",
        "value": "t_bool"
      },
      "t_mapping(t_uint256,t_bytes32)": {
        "encoding": "mapping",
        "key": "t_uint256",
        "label": "mapping(uint256 => bytes32)",
        "numberOfBytes": "32",
        "value": "t_bytes32"
      },
      "t_mapping(t_uint256,t_struct(ProposalCore)446_storage)": {
        "encoding": "mapping",
        "key": "t_uint256",
        "label": "mapping(uint256 => struct GovernorUpgradeable.ProposalCore)",
        "numberOfBytes": "32",
        "value": "t_struct(ProposalCore)446_storage"
      },
      "t_mapping(t_uint256,t_struct(ProposalVote)2380_storage)": {
        "encoding": "mapping",
        "key": "t_uint256",
        "label": "mapping(uint256 => struct GovernorCountingSimpleUpgradeable.ProposalVote)",
        "numberOfBytes": "32",
        "value": "t_struct(ProposalVote)2380_storage"
      },
      "t_string_storage": {
        "encoding": "bytes",
        "label": "string",
        "numberOfBytes": "32"
      },
      "t_struct(BlockNumber)4198_storage": {
        "encoding": "inplace",
        "label": "struct TimersUpgradeable.BlockNumber",
        "members": [
          {
            "astId": 4197,
            "contract": "contracts/GovernorContract.sol:ConvernorContract",
            "label": "_deadline",
            "offset": 0,
            "slot": "0",
            "type": "t_uint64"
          }
        ],
        "numberOfBytes": "32"
      },
      "t_struct(ProposalCore)446_storage": {
        "encoding": "inplace",
        "label": "struct GovernorUpgradeable.ProposalCore",
        "members": [
          {
            "astId": 438,
            "contract": "contracts/GovernorContract.sol:ConvernorContract",
            "label": "voteStart",
            "offset": 0,
            "slot": "0",
            "type": "t_struct(BlockNumber)4198_storage"
          },
          {
            "astId": 441,
            "contract": "contracts/GovernorContract.sol:ConvernorContract",
            "label": "voteEnd",
            "offset": 0,
            "slot": "1",
            "type": "t_struct(BlockNumber)4198_storage"
          },
          {
            "astId": 443,
            "contract": "contracts/GovernorContract.sol:ConvernorContract",
            "label": "executed",
            "offset": 0,
            "slot": "2",
            "type": "t_bool"
          },
          {
            "astId": 445,
            "contract": "contracts/GovernorContract.sol:ConvernorContract",
            "label": "canceled",
            "offset": 1,
            "slot": "2",
            "type": "t_bool"
          }
        ],
        "numberOfBytes": "96"
      },
      "t_struct(ProposalVote)2380_storage": {
        "encoding": "inplace",
        "label": "struct GovernorCountingSimpleUpgradeable.ProposalVote",
        "members": [
          {
            "astId": 2371,
            "contract": "contracts/GovernorContract.sol:ConvernorContract",
            "label": "againstVotes",
            "offset": 0,
            "slot": "0",
            "type": "t_uint256"
          },
          {
            "astId": 2373,
            "contract": "contracts/GovernorContract.sol:ConvernorContract",
            "label": "forVotes",
            "offset": 0,
            "slot": "1",
            "type": "t_uint256"
          },
          {
            "astId": 2375,
            "contract": "contracts/GovernorContract.sol:ConvernorContract",
            "label": "abstainVotes",
            "offset": 0,
            "slot": "2",
            "type": "t_uint256"
          },
          {
            "astId": 2379,
            "contract": "contracts/GovernorContract.sol:ConvernorContract",
            "label": "hasVoted",
            "offset": 0,
            "slot": "3",
            "type": "t_mapping(t_address,t_bool)"
          }
        ],
        "numberOfBytes": "128"
      },
      "t_uint256": {
        "encoding": "inplace",
        "label": "uint256",
        "numberOfBytes": "32"
      },
      "t_uint64": {
        "encoding": "inplace",
        "label": "uint64",
        "numberOfBytes": "8"
      }
    }
  }
}