{
  "address": "0xE2193bf8586bdfAeb7e422dE4567E40b94C83512",
  "abi": [
    {
      "inputs": [],
      "stateMutability": "nonpayable",
      "type": "constructor"
    },
    {
      "anonymous": false,
      "inputs": [
        {
          "indexed": false,
          "internalType": "address",
          "name": "previousAdmin",
          "type": "address"
        },
        {
          "indexed": false,
          "internalType": "address",
          "name": "newAdmin",
          "type": "address"
        }
      ],
      "name": "AdminChanged",
      "type": "event"
    },
    {
      "anonymous": false,
      "inputs": [
        {
          "indexed": true,
          "internalType": "address",
          "name": "owner",
          "type": "address"
        },
        {
          "indexed": true,
          "internalType": "address",
          "name": "spender",
          "type": "address"
        },
        {
          "indexed": false,
          "internalType": "uint256",
          "name": "value",
          "type": "uint256"
        }
      ],
      "name": "Approval",
      "type": "event"
    },
    {
      "anonymous": false,
      "inputs": [
        {
          "indexed": true,
          "internalType": "address",
          "name": "beacon",
          "type": "address"
        }
      ],
      "name": "BeaconUpgraded",
      "type": "event"
    },
    {
      "anonymous": false,
      "inputs": [
        {
          "indexed": true,
          "internalType": "address",
          "name": "delegator",
          "type": "address"
        },
        {
          "indexed": true,
          "internalType": "address",
          "name": "fromDelegate",
          "type": "address"
        },
        {
          "indexed": true,
          "internalType": "address",
          "name": "toDelegate",
          "type": "address"
        }
      ],
      "name": "DelegateChanged",
      "type": "event"
    },
    {
      "anonymous": false,
      "inputs": [
        {
          "indexed": true,
          "internalType": "address",
          "name": "delegate",
          "type": "address"
        },
        {
          "indexed": false,
          "internalType": "uint256",
          "name": "previousBalance",
          "type": "uint256"
        },
        {
          "indexed": false,
          "internalType": "uint256",
          "name": "newBalance",
          "type": "uint256"
        }
      ],
      "name": "DelegateVotesChanged",
      "type": "event"
    },
    {
      "anonymous": false,
      "inputs": [
        {
          "indexed": true,
          "internalType": "address",
          "name": "previousOwner",
          "type": "address"
        },
        {
          "indexed": true,
          "internalType": "address",
          "name": "newOwner",
          "type": "address"
        }
      ],
      "name": "OwnershipTransferred",
      "type": "event"
    },
    {
      "anonymous": false,
      "inputs": [
        {
          "indexed": true,
          "internalType": "address",
          "name": "from",
          "type": "address"
        },
        {
          "indexed": true,
          "internalType": "address",
          "name": "to",
          "type": "address"
        },
        {
          "indexed": false,
          "internalType": "uint256",
          "name": "value",
          "type": "uint256"
        }
      ],
      "name": "Transfer",
      "type": "event"
    },
    {
      "anonymous": false,
      "inputs": [
        {
          "indexed": true,
          "internalType": "address",
          "name": "implementation",
          "type": "address"
        }
      ],
      "name": "Upgraded",
      "type": "event"
    },
    {
      "inputs": [],
      "name": "DOMAIN_SEPARATOR",
      "outputs": [
        {
          "internalType": "bytes32",
          "name": "",
          "type": "bytes32"
        }
      ],
      "stateMutability": "view",
      "type": "function"
    },
    {
      "inputs": [
        {
          "internalType": "address",
          "name": "owner",
          "type": "address"
        },
        {
          "internalType": "address",
          "name": "spender",
          "type": "address"
        }
      ],
      "name": "allowance",
      "outputs": [
        {
          "internalType": "uint256",
          "name": "",
          "type": "uint256"
        }
      ],
      "stateMutability": "view",
      "type": "function"
    },
    {
      "inputs": [
        {
          "internalType": "address",
          "name": "spender",
          "type": "address"
        },
        {
          "internalType": "uint256",
          "name": "amount",
          "type": "uint256"
        }
      ],
      "name": "approve",
      "outputs": [
        {
          "internalType": "bool",
          "name": "",
          "type": "bool"
        }
      ],
      "stateMutability": "nonpayable",
      "type": "function"
    },
    {
      "inputs": [
        {
          "internalType": "address",
          "name": "account",
          "type": "address"
        }
      ],
      "name": "balanceOf",
      "outputs": [
        {
          "internalType": "uint256",
          "name": "",
          "type": "uint256"
        }
      ],
      "stateMutability": "view",
      "type": "function"
    },
    {
      "inputs": [
        {
          "internalType": "address",
          "name": "account",
          "type": "address"
        },
        {
          "internalType": "uint32",
          "name": "pos",
          "type": "uint32"
        }
      ],
      "name": "checkpoints",
      "outputs": [
        {
          "components": [
            {
              "internalType": "uint32",
              "name": "fromBlock",
              "type": "uint32"
            },
            {
              "internalType": "uint224",
              "name": "votes",
              "type": "uint224"
            }
          ],
          "internalType": "struct ERC20VotesUpgradeable.Checkpoint",
          "name": "",
          "type": "tuple"
        }
      ],
      "stateMutability": "view",
      "type": "function"
    },
    {
      "inputs": [],
      "name": "decimals",
      "outputs": [
        {
          "internalType": "uint8",
          "name": "",
          "type": "uint8"
        }
      ],
      "stateMutability": "view",
      "type": "function"
    },
    {
      "inputs": [
        {
          "internalType": "address",
          "name": "spender",
          "type": "address"
        },
        {
          "internalType": "uint256",
          "name": "subtractedValue",
          "type": "uint256"
        }
      ],
      "name": "decreaseAllowance",
      "outputs": [
        {
          "internalType": "bool",
          "name": "",
          "type": "bool"
        }
      ],
      "stateMutability": "nonpayable",
      "type": "function"
    },
    {
      "inputs": [
        {
          "internalType": "address",
          "name": "delegatee",
          "type": "address"
        }
      ],
      "name": "delegate",
      "outputs": [],
      "stateMutability": "nonpayable",
      "type": "function"
    },
    {
      "inputs": [
        {
          "internalType": "address",
          "name": "delegatee",
          "type": "address"
        },
        {
          "internalType": "uint256",
          "name": "nonce",
          "type": "uint256"
        },
        {
          "internalType": "uint256",
          "name": "expiry",
          "type": "uint256"
        },
        {
          "internalType": "uint8",
          "name": "v",
          "type": "uint8"
        },
        {
          "internalType": "bytes32",
          "name": "r",
          "type": "bytes32"
        },
        {
          "internalType": "bytes32",
          "name": "s",
          "type": "bytes32"
        }
      ],
      "name": "delegateBySig",
      "outputs": [],
      "stateMutability": "nonpayable",
      "type": "function"
    },
    {
      "inputs": [
        {
          "internalType": "address",
          "name": "account",
          "type": "address"
        }
      ],
      "name": "delegates",
      "outputs": [
        {
          "internalType": "address",
          "name": "",
          "type": "address"
        }
      ],
      "stateMutability": "view",
      "type": "function"
    },
    {
      "inputs": [
        {
          "internalType": "uint256",
          "name": "blockNumber",
          "type": "uint256"
        }
      ],
      "name": "getPastTotalSupply",
      "outputs": [
        {
          "internalType": "uint256",
          "name": "",
          "type": "uint256"
        }
      ],
      "stateMutability": "view",
      "type": "function"
    },
    {
      "inputs": [
        {
          "internalType": "address",
          "name": "account",
          "type": "address"
        },
        {
          "internalType": "uint256",
          "name": "blockNumber",
          "type": "uint256"
        }
      ],
      "name": "getPastVotes",
      "outputs": [
        {
          "internalType": "uint256",
          "name": "",
          "type": "uint256"
        }
      ],
      "stateMutability": "view",
      "type": "function"
    },
    {
      "inputs": [
        {
          "internalType": "address",
          "name": "account",
          "type": "address"
        }
      ],
      "name": "getVotes",
      "outputs": [
        {
          "internalType": "uint256",
          "name": "",
          "type": "uint256"
        }
      ],
      "stateMutability": "view",
      "type": "function"
    },
    {
      "inputs": [
        {
          "internalType": "address",
          "name": "spender",
          "type": "address"
        },
        {
          "internalType": "uint256",
          "name": "addedValue",
          "type": "uint256"
        }
      ],
      "name": "increaseAllowance",
      "outputs": [
        {
          "internalType": "bool",
          "name": "",
          "type": "bool"
        }
      ],
      "stateMutability": "nonpayable",
      "type": "function"
    },
    {
      "inputs": [],
      "name": "initialize",
      "outputs": [],
      "stateMutability": "nonpayable",
      "type": "function"
    },
    {
      "inputs": [
        {
          "internalType": "address",
          "name": "to",
          "type": "address"
        },
        {
          "internalType": "uint256",
          "name": "amount",
          "type": "uint256"
        }
      ],
      "name": "mint",
      "outputs": [],
      "stateMutability": "nonpayable",
      "type": "function"
    },
    {
      "inputs": [],
      "name": "name",
      "outputs": [
        {
          "internalType": "string",
          "name": "",
          "type": "string"
        }
      ],
      "stateMutability": "view",
      "type": "function"
    },
    {
      "inputs": [
        {
          "internalType": "address",
          "name": "owner",
          "type": "address"
        }
      ],
      "name": "nonces",
      "outputs": [
        {
          "internalType": "uint256",
          "name": "",
          "type": "uint256"
        }
      ],
      "stateMutability": "view",
      "type": "function"
    },
    {
      "inputs": [
        {
          "internalType": "address",
          "name": "account",
          "type": "address"
        }
      ],
      "name": "numCheckpoints",
      "outputs": [
        {
          "internalType": "uint32",
          "name": "",
          "type": "uint32"
        }
      ],
      "stateMutability": "view",
      "type": "function"
    },
    {
      "inputs": [],
      "name": "owner",
      "outputs": [
        {
          "internalType": "address",
          "name": "",
          "type": "address"
        }
      ],
      "stateMutability": "view",
      "type": "function"
    },
    {
      "inputs": [
        {
          "internalType": "address",
          "name": "owner",
          "type": "address"
        },
        {
          "internalType": "address",
          "name": "spender",
          "type": "address"
        },
        {
          "internalType": "uint256",
          "name": "value",
          "type": "uint256"
        },
        {
          "internalType": "uint256",
          "name": "deadline",
          "type": "uint256"
        },
        {
          "internalType": "uint8",
          "name": "v",
          "type": "uint8"
        },
        {
          "internalType": "bytes32",
          "name": "r",
          "type": "bytes32"
        },
        {
          "internalType": "bytes32",
          "name": "s",
          "type": "bytes32"
        }
      ],
      "name": "permit",
      "outputs": [],
      "stateMutability": "nonpayable",
      "type": "function"
    },
    {
      "inputs": [],
      "name": "proxiableUUID",
      "outputs": [
        {
          "internalType": "bytes32",
          "name": "",
          "type": "bytes32"
        }
      ],
      "stateMutability": "view",
      "type": "function"
    },
    {
      "inputs": [],
      "name": "renounceOwnership",
      "outputs": [],
      "stateMutability": "nonpayable",
      "type": "function"
    },
    {
      "inputs": [],
      "name": "symbol",
      "outputs": [
        {
          "internalType": "string",
          "name": "",
          "type": "string"
        }
      ],
      "stateMutability": "view",
      "type": "function"
    },
    {
      "inputs": [],
      "name": "totalSupply",
      "outputs": [
        {
          "internalType": "uint256",
          "name": "",
          "type": "uint256"
        }
      ],
      "stateMutability": "view",
      "type": "function"
    },
    {
      "inputs": [
        {
          "internalType": "address",
          "name": "to",
          "type": "address"
        },
        {
          "internalType": "uint256",
          "name": "amount",
          "type": "uint256"
        }
      ],
      "name": "transfer",
      "outputs": [
        {
          "internalType": "bool",
          "name": "",
          "type": "bool"
        }
      ],
      "stateMutability": "nonpayable",
      "type": "function"
    },
    {
      "inputs": [
        {
          "internalType": "address",
          "name": "from",
          "type": "address"
        },
        {
          "internalType": "address",
          "name": "to",
          "type": "address"
        },
        {
          "internalType": "uint256",
          "name": "amount",
          "type": "uint256"
        }
      ],
      "name": "transferFrom",
      "outputs": [
        {
          "internalType": "bool",
          "name": "",
          "type": "bool"
        }
      ],
      "stateMutability": "nonpayable",
      "type": "function"
    },
    {
      "inputs": [
        {
          "internalType": "address",
          "name": "newOwner",
          "type": "address"
        }
      ],
      "name": "transferOwnership",
      "outputs": [],
      "stateMutability": "nonpayable",
      "type": "function"
    },
    {
      "inputs": [
        {
          "internalType": "address",
          "name": "newImplementation",
          "type": "address"
        }
      ],
      "name": "upgradeTo",
      "outputs": [],
      "stateMutability": "nonpayable",
      "type": "function"
    },
    {
      "inputs": [
        {
          "internalType": "address",
          "name": "newImplementation",
          "type": "address"
        },
        {
          "internalType": "bytes",
          "name": "data",
          "type": "bytes"
        }
      ],
      "name": "upgradeToAndCall",
      "outputs": [],
      "stateMutability": "payable",
      "type": "function"
    }
  ],
  "transactionHash": "0x0d79a879c469da53bbb2f5901866db50236241ba16d45b3f75875bb1a67c7cc5",
  "args": [],
  "numDeployments": 2,
  "solcInputHash": "02b8af00ae28af6efb42ddb5ee7e6d8a",
  "bytecode": "0x60a06040523073ffffffffffffffffffffffffffffffffffffffff1660809073ffffffffffffffffffffffffffffffffffffffff1660601b8152503480156200004757600080fd5b50600060019054906101000a900460ff16620000725760008054906101000a900460ff161562000083565b620000826200013f60201b60201c565b5b620000c5576040517f08c379a0000000000000000000000000000000000000000000000000000000008152600401620000bc90620001a7565b60405180910390fd5b60008060019054906101000a900460ff16159050801562000116576001600060016101000a81548160ff02191690831515021790555060016000806101000a81548160ff0219169083151502179055505b8015620001385760008060016101000a81548160ff0219169083151502179055505b5062000229565b600062000157306200015d60201b620019ff1760201c565b15905090565b6000808273ffffffffffffffffffffffffffffffffffffffff163b119050919050565b60006200018f602e83620001c9565b91506200019c82620001da565b604082019050919050565b60006020820190508181036000830152620001c28162000180565b9050919050565b600082825260208201905092915050565b7f496e697469616c697a61626c653a20636f6e747261637420697320616c72656160008201527f647920696e697469616c697a6564000000000000000000000000000000000000602082015250565b60805160601c6157ed620002646000396000818161089d0152818161092c01528181610c1401528181610ca30152610d5301526157ed6000f3fe6080604052600436106101cd5760003560e01c806370a08231116100f75780639ab24eb011610095578063d505accf11610064578063d505accf146106c9578063dd62ed3e146106f2578063f1127ed81461072f578063f2fde38b1461076c576101cd565b80639ab24eb0146105e9578063a457c2d714610626578063a9059cbb14610663578063c3cda520146106a0576101cd565b80638129fc1c116100d15780638129fc1c1461053f5780638da5cb5b146105565780638e539e8c1461058157806395d89b41146105be576101cd565b806370a08231146104ae578063715018a6146104eb5780637ecebe0014610502576101cd565b8063395093511161016f57806352d1902d1161013e57806352d1902d146103e0578063587cde1e1461040b5780635c19a95c146104485780636fcfff4514610471576101cd565b806339509351146103215780633a46b1a81461035e57806340c10f191461039b5780634f1ef286146103c4576101cd565b806323b872dd116101ab57806323b872dd14610265578063313ce567146102a25780633644e515146102cd5780633659cfe6146102f8576101cd565b806306fdde03146101d2578063095ea7b3146101fd57806318160ddd1461023a575b600080fd5b3480156101de57600080fd5b506101e7610795565b6040516101f4919061450f565b60405180910390f35b34801561020957600080fd5b50610224600480360381019061021f9190613c57565b610827565b604051610231919061439b565b60405180910390f35b34801561024657600080fd5b5061024f61084a565b60405161025c919061492c565b60405180910390f35b34801561027157600080fd5b5061028c60048036038101906102879190613b16565b610854565b604051610299919061439b565b60405180910390f35b3480156102ae57600080fd5b506102b7610883565b6040516102c4919061498b565b60405180910390f35b3480156102d957600080fd5b506102e261088c565b6040516102ef91906143b6565b60405180910390f35b34801561030457600080fd5b5061031f600480360381019061031a9190613ab1565b61089b565b005b34801561032d57600080fd5b5061034860048036038101906103439190613c57565b610a4a565b604051610355919061439b565b60405180910390f35b34801561036a57600080fd5b5061038560048036038101906103809190613c57565b610af4565b604051610392919061492c565b60405180910390f35b3480156103a757600080fd5b506103c260048036038101906103bd9190613c57565b610b88565b005b6103de60048036038101906103d99190613c03565b610c12565b005b3480156103ec57600080fd5b506103f5610d4f565b60405161040291906143b6565b60405180910390f35b34801561041757600080fd5b50610432600480360381019061042d9190613ab1565b610e08565b60405161043f9190614380565b60405180910390f35b34801561045457600080fd5b5061046f600480360381019061046a9190613ab1565b610e71565b005b34801561047d57600080fd5b5061049860048036038101906104939190613ab1565b610e85565b6040516104a59190614970565b60405180910390f35b3480156104ba57600080fd5b506104d560048036038101906104d09190613ab1565b610ed9565b6040516104e2919061492c565b60405180910390f35b3480156104f757600080fd5b50610500610f22565b005b34801561050e57600080fd5b5061052960048036038101906105249190613ab1565b610faa565b604051610536919061492c565b60405180910390f35b34801561054b57600080fd5b50610554610ffa565b005b34801561056257600080fd5b5061056b6111cb565b6040516105789190614380565b60405180910390f35b34801561058d57600080fd5b506105a860048036038101906105a39190613d81565b6111f5565b6040516105b5919061492c565b60405180910390f35b3480156105ca57600080fd5b506105d361124c565b6040516105e0919061450f565b60405180910390f35b3480156105f557600080fd5b50610610600480360381019061060b9190613ab1565b6112de565b60405161061d919061492c565b60405180910390f35b34801561063257600080fd5b5061064d60048036038101906106489190613c57565b611415565b60405161065a919061439b565b60405180910390f35b34801561066f57600080fd5b5061068a60048036038101906106859190613c57565b6114ff565b604051610697919061439b565b60405180910390f35b3480156106ac57600080fd5b506106c760048036038101906106c29190613c93565b611522565b005b3480156106d557600080fd5b506106f060048036038101906106eb9190613b65565b611626565b005b3480156106fe57600080fd5b5061071960048036038101906107149190613ada565b61174a565b604051610726919061492c565b60405180910390f35b34801561073b57600080fd5b5061075660048036038101906107519190613d1c565b6117d1565b6040516107639190614911565b60405180910390f35b34801561077857600080fd5b50610793600480360381019061078e9190613ab1565b611907565b005b6060603680546107a490614d98565b80601f01602080910402602001604051908101604052809291908181526020018280546107d090614d98565b801561081d5780601f106107f25761010080835404028352916020019161081d565b820191906000526020600020905b81548152906001019060200180831161080057829003601f168201915b5050505050905090565b600080610832611a22565b905061083f818585611a2a565b600191505092915050565b6000603554905090565b60008061085f611a22565b905061086c858285611bf5565b610877858585611c81565b60019150509392505050565b60006012905090565b6000610896611f05565b905090565b7f000000000000000000000000000000000000000000000000000000000000000073ffffffffffffffffffffffffffffffffffffffff163073ffffffffffffffffffffffffffffffffffffffff16141561092a576040517f08c379a000000000000000000000000000000000000000000000000000000000815260040161092190614631565b60405180910390fd5b7f000000000000000000000000000000000000000000000000000000000000000073ffffffffffffffffffffffffffffffffffffffff16610969611f45565b73ffffffffffffffffffffffffffffffffffffffff16146109bf576040517f08c379a00000000000000000000000000000000000000000000000000000000081526004016109b6906146d1565b60405180910390fd5b6109c881611f9c565b610a4781600067ffffffffffffffff811115610a0d577f4e487b7100000000000000000000000000000000000000000000000000000000600052604160045260246000fd5b6040519080825280601f01601f191660200182016040528015610a3f5781602001600182028036833780820191505090505b50600061201b565b50565b600080610a55611a22565b9050610ae9818585603460008673ffffffffffffffffffffffffffffffffffffffff1673ffffffffffffffffffffffffffffffffffffffff16815260200190815260200160002060008973ffffffffffffffffffffffffffffffffffffffff1673ffffffffffffffffffffffffffffffffffffffff16815260200190815260200160002054610ae49190614a39565b611a2a565b600191505092915050565b6000438210610b38576040517f08c379a0000000000000000000000000000000000000000000000000000000008152600401610b2f90614571565b60405180910390fd5b610b8060ff60008573ffffffffffffffffffffffffffffffffffffffff1673ffffffffffffffffffffffffffffffffffffffff16815260200190815260200160002083612198565b905092915050565b610b90611a22565b73ffffffffffffffffffffffffffffffffffffffff16610bae6111cb565b73ffffffffffffffffffffffffffffffffffffffff1614610c04576040517f08c379a0000000000000000000000000000000000000000000000000000000008152600401610bfb906147f1565b60405180910390fd5b610c0e82826122f0565b5050565b7f000000000000000000000000000000000000000000000000000000000000000073ffffffffffffffffffffffffffffffffffffffff163073ffffffffffffffffffffffffffffffffffffffff161415610ca1576040517f08c379a0000000000000000000000000000000000000000000000000000000008152600401610c9890614631565b60405180910390fd5b7f000000000000000000000000000000000000000000000000000000000000000073ffffffffffffffffffffffffffffffffffffffff16610ce0611f45565b73ffffffffffffffffffffffffffffffffffffffff1614610d36576040517f08c379a0000000000000000000000000000000000000000000000000000000008152600401610d2d906146d1565b60405180910390fd5b610d3f82611f9c565b610d4b8282600161201b565b5050565b60007f000000000000000000000000000000000000000000000000000000000000000073ffffffffffffffffffffffffffffffffffffffff163073ffffffffffffffffffffffffffffffffffffffff1614610ddf576040517f08c379a0000000000000000000000000000000000000000000000000000000008152600401610dd6906146f1565b60405180910390fd5b7f360894a13ba1a3210667c828492db98dca3e2076cc3735a920a3ca505d382bbc60001b905090565b600060fe60008373ffffffffffffffffffffffffffffffffffffffff1673ffffffffffffffffffffffffffffffffffffffff16815260200190815260200160002060009054906101000a900473ffffffffffffffffffffffffffffffffffffffff169050919050565b610e82610e7c611a22565b826122fe565b50565b6000610ed260ff60008473ffffffffffffffffffffffffffffffffffffffff1673ffffffffffffffffffffffffffffffffffffffff16815260200190815260200160002080549050612418565b9050919050565b6000603360008373ffffffffffffffffffffffffffffffffffffffff1673ffffffffffffffffffffffffffffffffffffffff168152602001908152602001600020549050919050565b610f2a611a22565b73ffffffffffffffffffffffffffffffffffffffff16610f486111cb565b73ffffffffffffffffffffffffffffffffffffffff1614610f9e576040517f08c379a0000000000000000000000000000000000000000000000000000000008152600401610f95906147f1565b60405180910390fd5b610fa8600061246b565b565b6000610ff360cb60008473ffffffffffffffffffffffffffffffffffffffff1673ffffffffffffffffffffffffffffffffffffffff168152602001908152602001600020612531565b9050919050565b600060019054906101000a900460ff166110225760008054906101000a900460ff161561102b565b61102a61253f565b5b61106a576040517f08c379a000000000000000000000000000000000000000000000000000000000815260040161106190614731565b60405180910390fd5b60008060019054906101000a900460ff1615905080156110ba576001600060016101000a81548160ff02191690831515021790555060016000806101000a81548160ff0219169083151502179055505b61112e6040518060400160405280600f81526020017f476f7665726e616e6365546f6b656e00000000000000000000000000000000008152506040518060400160405280600281526020017f4754000000000000000000000000000000000000000000000000000000000000815250612550565b6111366125ad565b6111746040518060400160405280600f81526020017f476f7665726e616e6365546f6b656e0000000000000000000000000000000000815250612606565b61117c6126a0565b6111a733611188610883565b600a6111949190614b13565b629896806111a29190614c31565b6122f0565b80156111c85760008060016101000a81548160ff0219169083151502179055505b50565b6000606560009054906101000a900473ffffffffffffffffffffffffffffffffffffffff16905090565b6000438210611239576040517f08c379a000000000000000000000000000000000000000000000000000000000815260040161123090614571565b60405180910390fd5b61124561010083612198565b9050919050565b60606037805461125b90614d98565b80601f016020809104026020016040519081016040528092919081815260200182805461128790614d98565b80156112d45780601f106112a9576101008083540402835291602001916112d4565b820191906000526020600020905b8154815290600101906020018083116112b757829003601f168201915b5050505050905090565b60008060ff60008473ffffffffffffffffffffffffffffffffffffffff1673ffffffffffffffffffffffffffffffffffffffff168152602001908152602001600020805490509050600081146113ec5760ff60008473ffffffffffffffffffffffffffffffffffffffff1673ffffffffffffffffffffffffffffffffffffffff16815260200190815260200160002060018261137a9190614c8b565b815481106113b1577f4e487b7100000000000000000000000000000000000000000000000000000000600052603260045260246000fd5b9060005260206000200160000160049054906101000a90047bffffffffffffffffffffffffffffffffffffffffffffffffffffffff166113ef565b60005b7bffffffffffffffffffffffffffffffffffffffffffffffffffffffff16915050919050565b600080611420611a22565b90506000603460008373ffffffffffffffffffffffffffffffffffffffff1673ffffffffffffffffffffffffffffffffffffffff16815260200190815260200160002060008673ffffffffffffffffffffffffffffffffffffffff1673ffffffffffffffffffffffffffffffffffffffff168152602001908152602001600020549050838110156114e6576040517f08c379a00000000000000000000000000000000000000000000000000000000081526004016114dd906148d1565b60405180910390fd5b6114f38286868403611a2a565b60019250505092915050565b60008061150a611a22565b9050611517818585611c81565b600191505092915050565b83421115611565576040517f08c379a000000000000000000000000000000000000000000000000000000000815260040161155c90614591565b60405180910390fd5b60006115c76115bf7fe48329057bfd03d55e49b547132e39cffd9c1820ad7b9d4c5307691425d15adf8989896040516020016115a49493929190614432565b604051602081830303815290604052805190602001206126f1565b85858561270b565b90506115d281612736565b8614611613576040517f08c379a000000000000000000000000000000000000000000000000000000000815260040161160a906145d1565b60405180910390fd5b61161d81886122fe565b50505050505050565b83421115611669576040517f08c379a000000000000000000000000000000000000000000000000000000000815260040161166090614671565b60405180910390fd5b600060cc5488888861167a8c612736565b89604051602001611690969594939291906143d1565b60405160208183030381529060405280519060200120905060006116b3826126f1565b905060006116c38287878761270b565b90508973ffffffffffffffffffffffffffffffffffffffff168173ffffffffffffffffffffffffffffffffffffffff1614611733576040517f08c379a000000000000000000000000000000000000000000000000000000000815260040161172a90614791565b60405180910390fd5b61173e8a8a8a611a2a565b50505050505050505050565b6000603460008473ffffffffffffffffffffffffffffffffffffffff1673ffffffffffffffffffffffffffffffffffffffff16815260200190815260200160002060008373ffffffffffffffffffffffffffffffffffffffff1673ffffffffffffffffffffffffffffffffffffffff16815260200190815260200160002054905092915050565b6117d96138ea565b60ff60008473ffffffffffffffffffffffffffffffffffffffff1673ffffffffffffffffffffffffffffffffffffffff1681526020019081526020016000208263ffffffff1681548110611856577f4e487b7100000000000000000000000000000000000000000000000000000000600052603260045260246000fd5b906000526020600020016040518060400160405290816000820160009054906101000a900463ffffffff1663ffffffff1663ffffffff1681526020016000820160049054906101000a90047bffffffffffffffffffffffffffffffffffffffffffffffffffffffff167bffffffffffffffffffffffffffffffffffffffffffffffffffffffff167bffffffffffffffffffffffffffffffffffffffffffffffffffffffff1681525050905092915050565b61190f611a22565b73ffffffffffffffffffffffffffffffffffffffff1661192d6111cb565b73ffffffffffffffffffffffffffffffffffffffff1614611983576040517f08c379a000000000000000000000000000000000000000000000000000000000815260040161197a906147f1565b60405180910390fd5b600073ffffffffffffffffffffffffffffffffffffffff168173ffffffffffffffffffffffffffffffffffffffff1614156119f3576040517f08c379a00000000000000000000000000000000000000000000000000000000081526004016119ea906145f1565b60405180910390fd5b6119fc8161246b565b50565b6000808273ffffffffffffffffffffffffffffffffffffffff163b119050919050565b600033905090565b600073ffffffffffffffffffffffffffffffffffffffff168373ffffffffffffffffffffffffffffffffffffffff161415611a9a576040517f08c379a0000000000000000000000000000000000000000000000000000000008152600401611a9190614891565b60405180910390fd5b600073ffffffffffffffffffffffffffffffffffffffff168273ffffffffffffffffffffffffffffffffffffffff161415611b0a576040517f08c379a0000000000000000000000000000000000000000000000000000000008152600401611b0190614611565b60405180910390fd5b80603460008573ffffffffffffffffffffffffffffffffffffffff1673ffffffffffffffffffffffffffffffffffffffff16815260200190815260200160002060008473ffffffffffffffffffffffffffffffffffffffff1673ffffffffffffffffffffffffffffffffffffffff168152602001908152602001600020819055508173ffffffffffffffffffffffffffffffffffffffff168373ffffffffffffffffffffffffffffffffffffffff167f8c5be1e5ebec7d5bd14f71427d1e84f3dd0314c0f7b2291e5b200ac8c7c3b92583604051611be8919061492c565b60405180910390a3505050565b6000611c01848461174a565b90507fffffffffffffffffffffffffffffffffffffffffffffffffffffffffffffffff8114611c7b5781811015611c6d576040517f08c379a0000000000000000000000000000000000000000000000000000000008152600401611c6490614651565b60405180910390fd5b611c7a8484848403611a2a565b5b50505050565b600073ffffffffffffffffffffffffffffffffffffffff168373ffffffffffffffffffffffffffffffffffffffff161415611cf1576040517f08c379a0000000000000000000000000000000000000000000000000000000008152600401611ce890614851565b60405180910390fd5b600073ffffffffffffffffffffffffffffffffffffffff168273ffffffffffffffffffffffffffffffffffffffff161415611d61576040517f08c379a0000000000000000000000000000000000000000000000000000000008152600401611d5890614551565b60405180910390fd5b611d6c838383612794565b6000603360008573ffffffffffffffffffffffffffffffffffffffff1673ffffffffffffffffffffffffffffffffffffffff16815260200190815260200160002054905081811015611df3576040517f08c379a0000000000000000000000000000000000000000000000000000000008152600401611dea90614691565b60405180910390fd5b818103603360008673ffffffffffffffffffffffffffffffffffffffff1673ffffffffffffffffffffffffffffffffffffffff1681526020019081526020016000208190555081603360008573ffffffffffffffffffffffffffffffffffffffff1673ffffffffffffffffffffffffffffffffffffffff1681526020019081526020016000206000828254611e889190614a39565b925050819055508273ffffffffffffffffffffffffffffffffffffffff168473ffffffffffffffffffffffffffffffffffffffff167fddf252ad1be2c89b69c2b068fc378daa952ba7f163c4a11628f55a4df523b3ef84604051611eec919061492c565b60405180910390a3611eff848484612799565b50505050565b6000611f407f8b73c3c69bb8fe3d512ecc4cf759cc79239f7b179b0ffacaa9a75d522b39400f611f336127a9565b611f3b6127b3565b6127bd565b905090565b6000611f737f360894a13ba1a3210667c828492db98dca3e2076cc3735a920a3ca505d382bbc60001b6127f7565b60000160009054906101000a900473ffffffffffffffffffffffffffffffffffffffff16905090565b611fa4611a22565b73ffffffffffffffffffffffffffffffffffffffff16611fc26111cb565b73ffffffffffffffffffffffffffffffffffffffff1614612018576040517f08c379a000000000000000000000000000000000000000000000000000000000815260040161200f906147f1565b60405180910390fd5b50565b6120477f4910fdfa16fed3260ed0e7147f7cc6da11a60208b5b9406d12a635614ffd914360001b612801565b60000160009054906101000a900460ff161561206b576120668361280b565b612193565b8273ffffffffffffffffffffffffffffffffffffffff166352d1902d6040518163ffffffff1660e01b815260040160206040518083038186803b1580156120b157600080fd5b505afa9250505080156120e257506040513d601f19601f820116820180604052508101906120df9190613d58565b60015b612121576040517f08c379a000000000000000000000000000000000000000000000000000000000815260040161211890614771565b60405180910390fd5b7f360894a13ba1a3210667c828492db98dca3e2076cc3735a920a3ca505d382bbc60001b8114612186576040517f08c379a000000000000000000000000000000000000000000000000000000000815260040161217d90614711565b60405180910390fd5b506121928383836128c4565b5b505050565b6000808380549050905060005b8181101561223d5760006121b982846128f0565b9050848682815481106121f5577f4e487b7100000000000000000000000000000000000000000000000000000000600052603260045260246000fd5b9060005260206000200160000160009054906101000a900463ffffffff1663ffffffff16111561222757809250612237565b6001816122349190614a39565b91505b506121a5565b600082146122c557846001836122539190614c8b565b8154811061228a577f4e487b7100000000000000000000000000000000000000000000000000000000600052603260045260246000fd5b9060005260206000200160000160049054906101000a90047bffffffffffffffffffffffffffffffffffffffffffffffffffffffff166122c8565b60005b7bffffffffffffffffffffffffffffffffffffffffffffffffffffffff169250505092915050565b6122fa8282612916565b5050565b600061230983610e08565b9050600061231684610ed9565b90508260fe60008673ffffffffffffffffffffffffffffffffffffffff1673ffffffffffffffffffffffffffffffffffffffff16815260200190815260200160002060006101000a81548173ffffffffffffffffffffffffffffffffffffffff021916908373ffffffffffffffffffffffffffffffffffffffff1602179055508273ffffffffffffffffffffffffffffffffffffffff168273ffffffffffffffffffffffffffffffffffffffff168573ffffffffffffffffffffffffffffffffffffffff167f3134e8a2e6d97e929a7e54011ea5485d7d196dd5f0ba4d4ef95803e8e3fc257f60405160405180910390a46124128284836129a4565b50505050565b600063ffffffff8016821115612463576040517f08c379a000000000000000000000000000000000000000000000000000000000815260040161245a90614871565b60405180910390fd5b819050919050565b6000606560009054906101000a900473ffffffffffffffffffffffffffffffffffffffff16905081606560006101000a81548173ffffffffffffffffffffffffffffffffffffffff021916908373ffffffffffffffffffffffffffffffffffffffff1602179055508173ffffffffffffffffffffffffffffffffffffffff168173ffffffffffffffffffffffffffffffffffffffff167f8be0079c531659141344cd1fd0a4f28419497f9722a3daafe3b4186f6b6457e060405160405180910390a35050565b600081600001549050919050565b600061254a306119ff565b15905090565b600060019054906101000a900460ff1661259f576040517f08c379a0000000000000000000000000000000000000000000000000000000008152600401612596906148b1565b60405180910390fd5b6125a98282612b9d565b5050565b600060019054906101000a900460ff166125fc576040517f08c379a00000000000000000000000000000000000000000000000000000000081526004016125f3906148b1565b60405180910390fd5b612604612c1e565b565b600060019054906101000a900460ff16612655576040517f08c379a000000000000000000000000000000000000000000000000000000000815260040161264c906148b1565b60405180910390fd5b612694816040518060400160405280600181526020017f3100000000000000000000000000000000000000000000000000000000000000815250612c7f565b61269d81612cfa565b50565b600060019054906101000a900460ff166126ef576040517f08c379a00000000000000000000000000000000000000000000000000000000081526004016126e6906148b1565b60405180910390fd5b565b60006127046126fe611f05565b83612d73565b9050919050565b600080600061271c87878787612da6565b9150915061272981612eb3565b8192505050949350505050565b60008060cb60008473ffffffffffffffffffffffffffffffffffffffff1673ffffffffffffffffffffffffffffffffffffffff168152602001908152602001600020905061278381612531565b915061278e81613204565b50919050565b505050565b6127a483838361321a565b505050565b6000609754905090565b6000609854905090565b600083838346306040516020016127d8959493929190614477565b6040516020818303038152906040528051906020012090509392505050565b6000819050919050565b6000819050919050565b612814816119ff565b612853576040517f08c379a000000000000000000000000000000000000000000000000000000000815260040161284a906147b1565b60405180910390fd5b806128807f360894a13ba1a3210667c828492db98dca3e2076cc3735a920a3ca505d382bbc60001b6127f7565b60000160006101000a81548173ffffffffffffffffffffffffffffffffffffffff021916908373ffffffffffffffffffffffffffffffffffffffff16021790555050565b6128cd83613245565b6000825111806128da5750805b156128eb576128e98383613294565b505b505050565b600060028284186129019190614a8f565b82841661290e9190614a39565b905092915050565b6129208282613378565b6129286134d9565b7bffffffffffffffffffffffffffffffffffffffffffffffffffffffff1661294e61084a565b111561298f576040517f08c379a0000000000000000000000000000000000000000000000000000000008152600401612986906147d1565b60405180910390fd5b61299e6101006134fd83613513565b50505050565b8173ffffffffffffffffffffffffffffffffffffffff168373ffffffffffffffffffffffffffffffffffffffff16141580156129e05750600081115b15612b9857600073ffffffffffffffffffffffffffffffffffffffff168373ffffffffffffffffffffffffffffffffffffffff1614612abe57600080612a6760ff60008773ffffffffffffffffffffffffffffffffffffffff1673ffffffffffffffffffffffffffffffffffffffff1681526020019081526020016000206137fd85613513565b915091508473ffffffffffffffffffffffffffffffffffffffff167fdec2bacdd2f05b59de34da9b523dff8be42e5e38e818c82fdb0bae774387a7248383604051612ab3929190614947565b60405180910390a250505b600073ffffffffffffffffffffffffffffffffffffffff168273ffffffffffffffffffffffffffffffffffffffff1614612b9757600080612b4060ff60008673ffffffffffffffffffffffffffffffffffffffff1673ffffffffffffffffffffffffffffffffffffffff1681526020019081526020016000206134fd85613513565b915091508373ffffffffffffffffffffffffffffffffffffffff167fdec2bacdd2f05b59de34da9b523dff8be42e5e38e818c82fdb0bae774387a7248383604051612b8c929190614947565b60405180910390a250505b5b505050565b600060019054906101000a900460ff16612bec576040517f08c379a0000000000000000000000000000000000000000000000000000000008152600401612be3906148b1565b60405180910390fd5b8160369080519060200190612c02929190613928565b508060379080519060200190612c19929190613928565b505050565b600060019054906101000a900460ff16612c6d576040517f08c379a0000000000000000000000000000000000000000000000000000000008152600401612c64906148b1565b60405180910390fd5b612c7d612c78611a22565b61246b565b565b600060019054906101000a900460ff16612cce576040517f08c379a0000000000000000000000000000000000000000000000000000000008152600401612cc5906148b1565b60405180910390fd5b600082805190602001209050600082805190602001209050816097819055508060988190555050505050565b600060019054906101000a900460ff16612d49576040517f08c379a0000000000000000000000000000000000000000000000000000000008152600401612d40906148b1565b60405180910390fd5b7f6e71edae12b1b97f4d1f60370fef10105fa2faae0126114a169c64845d6126c960cc8190555050565b60008282604051602001612d88929190614349565b60405160208183030381529060405280519060200120905092915050565b6000807f7fffffffffffffffffffffffffffffff5d576e7357a4501ddfe92f46681b20a08360001c1115612de1576000600391509150612eaa565b601b8560ff1614158015612df95750601c8560ff1614155b15612e0b576000600491509150612eaa565b600060018787878760405160008152602001604052604051612e3094939291906144ca565b6020604051602081039080840390855afa158015612e52573d6000803e3d6000fd5b505050602060405103519050600073ffffffffffffffffffffffffffffffffffffffff168173ffffffffffffffffffffffffffffffffffffffff161415612ea157600060019250925050612eaa565b80600092509250505b94509492505050565b60006004811115612eed577f4e487b7100000000000000000000000000000000000000000000000000000000600052602160045260246000fd5b816004811115612f26577f4e487b7100000000000000000000000000000000000000000000000000000000600052602160045260246000fd5b1415612f3157613201565b60016004811115612f6b577f4e487b7100000000000000000000000000000000000000000000000000000000600052602160045260246000fd5b816004811115612fa4577f4e487b7100000000000000000000000000000000000000000000000000000000600052602160045260246000fd5b1415612fe5576040517f08c379a0000000000000000000000000000000000000000000000000000000008152600401612fdc90614531565b60405180910390fd5b6002600481111561301f577f4e487b7100000000000000000000000000000000000000000000000000000000600052602160045260246000fd5b816004811115613058577f4e487b7100000000000000000000000000000000000000000000000000000000600052602160045260246000fd5b1415613099576040517f08c379a0000000000000000000000000000000000000000000000000000000008152600401613090906145b1565b60405180910390fd5b600360048111156130d3577f4e487b7100000000000000000000000000000000000000000000000000000000600052602160045260246000fd5b81600481111561310c577f4e487b7100000000000000000000000000000000000000000000000000000000600052602160045260246000fd5b141561314d576040517f08c379a0000000000000000000000000000000000000000000000000000000008152600401613144906146b1565b60405180910390fd5b600480811115613186577f4e487b7100000000000000000000000000000000000000000000000000000000600052602160045260246000fd5b8160048111156131bf577f4e487b7100000000000000000000000000000000000000000000000000000000600052602160045260246000fd5b1415613200576040517f08c379a00000000000000000000000000000000000000000000000000000000081526004016131f790614751565b60405180910390fd5b5b50565b6001816000016000828254019250508190555050565b613225838383613813565b61324061323184610e08565b61323a84610e08565b836129a4565b505050565b61324e8161280b565b8073ffffffffffffffffffffffffffffffffffffffff167fbc7cd75a20ee27fd9adebab32041f755214dbc6bffa90cc0225b39da2e5c2d3b60405160405180910390a250565b606061329f836119ff565b6132de576040517f08c379a00000000000000000000000000000000000000000000000000000000081526004016132d590614831565b60405180910390fd5b6000808473ffffffffffffffffffffffffffffffffffffffff16846040516133069190614332565b600060405180830381855af49150503d8060008114613341576040519150601f19603f3d011682016040523d82523d6000602084013e613346565b606091505b509150915061336e828260405180606001604052806027815260200161579160279139613818565b9250505092915050565b600073ffffffffffffffffffffffffffffffffffffffff168273ffffffffffffffffffffffffffffffffffffffff1614156133e8576040517f08c379a00000000000000000000000000000000000000000000000000000000081526004016133df906148f1565b60405180910390fd5b6133f460008383612794565b80603560008282546134069190614a39565b9250508190555080603360008473ffffffffffffffffffffffffffffffffffffffff1673ffffffffffffffffffffffffffffffffffffffff168152602001908152602001600020600082825461345c9190614a39565b925050819055508173ffffffffffffffffffffffffffffffffffffffff16600073ffffffffffffffffffffffffffffffffffffffff167fddf252ad1be2c89b69c2b068fc378daa952ba7f163c4a11628f55a4df523b3ef836040516134c1919061492c565b60405180910390a36134d560008383612799565b5050565b60007bffffffffffffffffffffffffffffffffffffffffffffffffffffffff905090565b6000818361350b9190614a39565b905092915050565b600080600085805490509050600081146135a757856001826135359190614c8b565b8154811061356c577f4e487b7100000000000000000000000000000000000000000000000000000000600052603260045260246000fd5b9060005260206000200160000160049054906101000a90047bffffffffffffffffffffffffffffffffffffffffffffffffffffffff166135aa565b60005b7bffffffffffffffffffffffffffffffffffffffffffffffffffffffff1692506135d883858763ffffffff16565b9150600081118015613651575043866001836135f49190614c8b565b8154811061362b577f4e487b7100000000000000000000000000000000000000000000000000000000600052603260045260246000fd5b9060005260206000200160000160009054906101000a900463ffffffff1663ffffffff16145b156137045761365f8261387f565b8660018361366d9190614c8b565b815481106136a4577f4e487b7100000000000000000000000000000000000000000000000000000000600052603260045260246000fd5b9060005260206000200160000160046101000a8154817bffffffffffffffffffffffffffffffffffffffffffffffffffffffff02191690837bffffffffffffffffffffffffffffffffffffffffffffffffffffffff1602179055506137f4565b85604051806040016040528061371943612418565b63ffffffff16815260200161372d8561387f565b7bffffffffffffffffffffffffffffffffffffffffffffffffffffffff168152509080600181540180825580915050600190039060005260206000200160009091909190915060008201518160000160006101000a81548163ffffffff021916908363ffffffff16021790555060208201518160000160046101000a8154817bffffffffffffffffffffffffffffffffffffffffffffffffffffffff02191690837bffffffffffffffffffffffffffffffffffffffffffffffffffffffff16021790555050505b50935093915050565b6000818361380b9190614c8b565b905092915050565b505050565b6060831561382857829050613878565b60008351111561383b5782518084602001fd5b816040517f08c379a000000000000000000000000000000000000000000000000000000000815260040161386f919061450f565b60405180910390fd5b9392505050565b60007bffffffffffffffffffffffffffffffffffffffffffffffffffffffff80168211156138e2576040517f08c379a00000000000000000000000000000000000000000000000000000000081526004016138d990614811565b60405180910390fd5b819050919050565b6040518060400160405280600063ffffffff16815260200160007bffffffffffffffffffffffffffffffffffffffffffffffffffffffff1681525090565b82805461393490614d98565b90600052602060002090601f016020900481019282613956576000855561399d565b82601f1061396f57805160ff191683800117855561399d565b8280016001018555821561399d579182015b8281111561399c578251825591602001919060010190613981565b5b5090506139aa91906139ae565b5090565b5b808211156139c75760008160009055506001016139af565b5090565b60006139de6139d9846149cb565b6149a6565b9050828152602081018484840111156139f657600080fd5b613a01848285614d56565b509392505050565b600081359050613a188161571d565b92915050565b600081359050613a2d81615734565b92915050565b600081519050613a4281615734565b92915050565b600082601f830112613a5957600080fd5b8135613a698482602086016139cb565b91505092915050565b600081359050613a818161574b565b92915050565b600081359050613a9681615762565b92915050565b600081359050613aab81615779565b92915050565b600060208284031215613ac357600080fd5b6000613ad184828501613a09565b91505092915050565b60008060408385031215613aed57600080fd5b6000613afb85828601613a09565b9250506020613b0c85828601613a09565b9150509250929050565b600080600060608486031215613b2b57600080fd5b6000613b3986828701613a09565b9350506020613b4a86828701613a09565b9250506040613b5b86828701613a72565b9150509250925092565b600080600080600080600060e0888a031215613b8057600080fd5b6000613b8e8a828b01613a09565b9750506020613b9f8a828b01613a09565b9650506040613bb08a828b01613a72565b9550506060613bc18a828b01613a72565b9450506080613bd28a828b01613a9c565b93505060a0613be38a828b01613a1e565b92505060c0613bf48a828b01613a1e565b91505092959891949750929550565b60008060408385031215613c1657600080fd5b6000613c2485828601613a09565b925050602083013567ffffffffffffffff811115613c4157600080fd5b613c4d85828601613a48565b9150509250929050565b60008060408385031215613c6a57600080fd5b6000613c7885828601613a09565b9250506020613c8985828601613a72565b9150509250929050565b60008060008060008060c08789031215613cac57600080fd5b6000613cba89828a01613a09565b9650506020613ccb89828a01613a72565b9550506040613cdc89828a01613a72565b9450506060613ced89828a01613a9c565b9350506080613cfe89828a01613a1e565b92505060a0613d0f89828a01613a1e565b9150509295509295509295565b60008060408385031215613d2f57600080fd5b6000613d3d85828601613a09565b9250506020613d4e85828601613a87565b9150509250929050565b600060208284031215613d6a57600080fd5b6000613d7884828501613a33565b91505092915050565b600060208284031215613d9357600080fd5b6000613da184828501613a72565b91505092915050565b613db381614cbf565b82525050565b613dc281614cd1565b82525050565b613dd181614cdd565b82525050565b613de8613de382614cdd565b614dfb565b82525050565b6000613df9826149fc565b613e038185614a12565b9350613e13818560208601614d65565b80840191505092915050565b6000613e2a82614a07565b613e348185614a1d565b9350613e44818560208601614d65565b613e4d81614ec1565b840191505092915050565b6000613e65601883614a1d565b9150613e7082614edf565b602082019050919050565b6000613e88602383614a1d565b9150613e9382614f08565b604082019050919050565b6000613eab601f83614a1d565b9150613eb682614f57565b602082019050919050565b6000613ece601d83614a1d565b9150613ed982614f80565b602082019050919050565b6000613ef1601f83614a1d565b9150613efc82614fa9565b602082019050919050565b6000613f14601983614a1d565b9150613f1f82614fd2565b602082019050919050565b6000613f37602683614a1d565b9150613f4282614ffb565b604082019050919050565b6000613f5a602283614a1d565b9150613f658261504a565b604082019050919050565b6000613f7d600283614a2e565b9150613f8882615099565b600282019050919050565b6000613fa0602c83614a1d565b9150613fab826150c2565b604082019050919050565b6000613fc3601d83614a1d565b9150613fce82615111565b602082019050919050565b6000613fe6601d83614a1d565b9150613ff18261513a565b602082019050919050565b6000614009602683614a1d565b915061401482615163565b604082019050919050565b600061402c602283614a1d565b9150614037826151b2565b604082019050919050565b600061404f602c83614a1d565b915061405a82615201565b604082019050919050565b6000614072603883614a1d565b915061407d82615250565b604082019050919050565b6000614095602983614a1d565b91506140a08261529f565b604082019050919050565b60006140b8602e83614a1d565b91506140c3826152ee565b604082019050919050565b60006140db602283614a1d565b91506140e68261533d565b604082019050919050565b60006140fe602e83614a1d565b91506141098261538c565b604082019050919050565b6000614121601e83614a1d565b915061412c826153db565b602082019050919050565b6000614144602d83614a1d565b915061414f82615404565b604082019050919050565b6000614167603083614a1d565b915061417282615453565b604082019050919050565b600061418a602083614a1d565b9150614195826154a2565b602082019050919050565b60006141ad602783614a1d565b91506141b8826154cb565b604082019050919050565b60006141d0602683614a1d565b91506141db8261551a565b604082019050919050565b60006141f3602583614a1d565b91506141fe82615569565b604082019050919050565b6000614216602683614a1d565b9150614221826155b8565b604082019050919050565b6000614239602483614a1d565b915061424482615607565b604082019050919050565b600061425c602b83614a1d565b915061426782615656565b604082019050919050565b600061427f602583614a1d565b915061428a826156a5565b604082019050919050565b60006142a2601f83614a1d565b91506142ad826156f4565b602082019050919050565b6040820160008201516142ce6000850182614305565b5060208201516142e160208501826142e7565b50505050565b6142f081614d07565b82525050565b6142ff81614d2f565b82525050565b61430e81614d39565b82525050565b61431d81614d39565b82525050565b61432c81614d49565b82525050565b600061433e8284613dee565b915081905092915050565b600061435482613f70565b91506143608285613dd7565b6020820191506143708284613dd7565b6020820191508190509392505050565b60006020820190506143956000830184613daa565b92915050565b60006020820190506143b06000830184613db9565b92915050565b60006020820190506143cb6000830184613dc8565b92915050565b600060c0820190506143e66000830189613dc8565b6143f36020830188613daa565b6144006040830187613daa565b61440d60608301866142f6565b61441a60808301856142f6565b61442760a08301846142f6565b979650505050505050565b60006080820190506144476000830187613dc8565b6144546020830186613daa565b61446160408301856142f6565b61446e60608301846142f6565b95945050505050565b600060a08201905061448c6000830188613dc8565b6144996020830187613dc8565b6144a66040830186613dc8565b6144b360608301856142f6565b6144c06080830184613daa565b9695505050505050565b60006080820190506144df6000830187613dc8565b6144ec6020830186614323565b6144f96040830185613dc8565b6145066060830184613dc8565b95945050505050565b600060208201905081810360008301526145298184613e1f565b905092915050565b6000602082019050818103600083015261454a81613e58565b9050919050565b6000602082019050818103600083015261456a81613e7b565b9050919050565b6000602082019050818103600083015261458a81613e9e565b9050919050565b600060208201905081810360008301526145aa81613ec1565b9050919050565b600060208201905081810360008301526145ca81613ee4565b9050919050565b600060208201905081810360008301526145ea81613f07565b9050919050565b6000602082019050818103600083015261460a81613f2a565b9050919050565b6000602082019050818103600083015261462a81613f4d565b9050919050565b6000602082019050818103600083015261464a81613f93565b9050919050565b6000602082019050818103600083015261466a81613fb6565b9050919050565b6000602082019050818103600083015261468a81613fd9565b9050919050565b600060208201905081810360008301526146aa81613ffc565b9050919050565b600060208201905081810360008301526146ca8161401f565b9050919050565b600060208201905081810360008301526146ea81614042565b9050919050565b6000602082019050818103600083015261470a81614065565b9050919050565b6000602082019050818103600083015261472a81614088565b9050919050565b6000602082019050818103600083015261474a816140ab565b9050919050565b6000602082019050818103600083015261476a816140ce565b9050919050565b6000602082019050818103600083015261478a816140f1565b9050919050565b600060208201905081810360008301526147aa81614114565b9050919050565b600060208201905081810360008301526147ca81614137565b9050919050565b600060208201905081810360008301526147ea8161415a565b9050919050565b6000602082019050818103600083015261480a8161417d565b9050919050565b6000602082019050818103600083015261482a816141a0565b9050919050565b6000602082019050818103600083015261484a816141c3565b9050919050565b6000602082019050818103600083015261486a816141e6565b9050919050565b6000602082019050818103600083015261488a81614209565b9050919050565b600060208201905081810360008301526148aa8161422c565b9050919050565b600060208201905081810360008301526148ca8161424f565b9050919050565b600060208201905081810360008301526148ea81614272565b9050919050565b6000602082019050818103600083015261490a81614295565b9050919050565b600060408201905061492660008301846142b8565b92915050565b600060208201905061494160008301846142f6565b92915050565b600060408201905061495c60008301856142f6565b61496960208301846142f6565b9392505050565b60006020820190506149856000830184614314565b92915050565b60006020820190506149a06000830184614323565b92915050565b60006149b06149c1565b90506149bc8282614dca565b919050565b6000604051905090565b600067ffffffffffffffff8211156149e6576149e5614e92565b5b6149ef82614ec1565b9050602081019050919050565b600081519050919050565b600081519050919050565b600081905092915050565b600082825260208201905092915050565b600081905092915050565b6000614a4482614d2f565b9150614a4f83614d2f565b9250827fffffffffffffffffffffffffffffffffffffffffffffffffffffffffffffffff03821115614a8457614a83614e05565b5b828201905092915050565b6000614a9a82614d2f565b9150614aa583614d2f565b925082614ab557614ab4614e34565b5b828204905092915050565b6000808291508390505b6001851115614b0a57808604811115614ae657614ae5614e05565b5b6001851615614af55780820291505b8081029050614b0385614ed2565b9450614aca565b94509492505050565b6000614b1e82614d2f565b9150614b2983614d49565b9250614b567fffffffffffffffffffffffffffffffffffffffffffffffffffffffffffffffff8484614b5e565b905092915050565b600082614b6e5760019050614c2a565b81614b7c5760009050614c2a565b8160018114614b925760028114614b9c57614bcb565b6001915050614c2a565b60ff841115614bae57614bad614e05565b5b8360020a915084821115614bc557614bc4614e05565b5b50614c2a565b5060208310610133831016604e8410600b8410161715614c005782820a905083811115614bfb57614bfa614e05565b5b614c2a565b614c0d8484846001614ac0565b92509050818404811115614c2457614c23614e05565b5b81810290505b9392505050565b6000614c3c82614d2f565b9150614c4783614d2f565b9250817fffffffffffffffffffffffffffffffffffffffffffffffffffffffffffffffff0483118215151615614c8057614c7f614e05565b5b828202905092915050565b6000614c9682614d2f565b9150614ca183614d2f565b925082821015614cb457614cb3614e05565b5b828203905092915050565b6000614cca82614ce7565b9050919050565b60008115159050919050565b6000819050919050565b600073ffffffffffffffffffffffffffffffffffffffff82169050919050565b60007bffffffffffffffffffffffffffffffffffffffffffffffffffffffff82169050919050565b6000819050919050565b600063ffffffff82169050919050565b600060ff82169050919050565b82818337600083830152505050565b60005b83811015614d83578082015181840152602081019050614d68565b83811115614d92576000848401525b50505050565b60006002820490506001821680614db057607f821691505b60208210811415614dc457614dc3614e63565b5b50919050565b614dd382614ec1565b810181811067ffffffffffffffff82111715614df257614df1614e92565b5b80604052505050565b6000819050919050565b7f4e487b7100000000000000000000000000000000000000000000000000000000600052601160045260246000fd5b7f4e487b7100000000000000000000000000000000000000000000000000000000600052601260045260246000fd5b7f4e487b7100000000000000000000000000000000000000000000000000000000600052602260045260246000fd5b7f4e487b7100000000000000000000000000000000000000000000000000000000600052604160045260246000fd5b6000601f19601f8301169050919050565b60008160011c9050919050565b7f45434453413a20696e76616c6964207369676e61747572650000000000000000600082015250565b7f45524332303a207472616e7366657220746f20746865207a65726f206164647260008201527f6573730000000000000000000000000000000000000000000000000000000000602082015250565b7f4552433230566f7465733a20626c6f636b206e6f7420796574206d696e656400600082015250565b7f4552433230566f7465733a207369676e61747572652065787069726564000000600082015250565b7f45434453413a20696e76616c6964207369676e6174757265206c656e67746800600082015250565b7f4552433230566f7465733a20696e76616c6964206e6f6e636500000000000000600082015250565b7f4f776e61626c653a206e6577206f776e657220697320746865207a65726f206160008201527f6464726573730000000000000000000000000000000000000000000000000000602082015250565b7f45524332303a20617070726f766520746f20746865207a65726f20616464726560008201527f7373000000000000000000000000000000000000000000000000000000000000602082015250565b7f1901000000000000000000000000000000000000000000000000000000000000600082015250565b7f46756e6374696f6e206d7573742062652063616c6c6564207468726f7567682060008201527f64656c656761746563616c6c0000000000000000000000000000000000000000602082015250565b7f45524332303a20696e73756666696369656e7420616c6c6f77616e6365000000600082015250565b7f45524332305065726d69743a206578706972656420646561646c696e65000000600082015250565b7f45524332303a207472616e7366657220616d6f756e742065786365656473206260008201527f616c616e63650000000000000000000000000000000000000000000000000000602082015250565b7f45434453413a20696e76616c6964207369676e6174757265202773272076616c60008201527f7565000000000000000000000000000000000000000000000000000000000000602082015250565b7f46756e6374696f6e206d7573742062652063616c6c6564207468726f7567682060008201527f6163746976652070726f78790000000000000000000000000000000000000000602082015250565b7f555550535570677261646561626c653a206d757374206e6f742062652063616c60008201527f6c6564207468726f7567682064656c656761746563616c6c0000000000000000602082015250565b7f45524331393637557067726164653a20756e737570706f727465642070726f7860008201527f6961626c65555549440000000000000000000000000000000000000000000000602082015250565b7f496e697469616c697a61626c653a20636f6e747261637420697320616c72656160008201527f647920696e697469616c697a6564000000000000000000000000000000000000602082015250565b7f45434453413a20696e76616c6964207369676e6174757265202776272076616c60008201527f7565000000000000000000000000000000000000000000000000000000000000602082015250565b7f45524331393637557067726164653a206e657720696d706c656d656e7461746960008201527f6f6e206973206e6f742055555053000000000000000000000000000000000000602082015250565b7f45524332305065726d69743a20696e76616c6964207369676e61747572650000600082015250565b7f455243313936373a206e657720696d706c656d656e746174696f6e206973206e60008201527f6f74206120636f6e747261637400000000000000000000000000000000000000602082015250565b7f4552433230566f7465733a20746f74616c20737570706c79207269736b73206f60008201527f766572666c6f77696e6720766f74657300000000000000000000000000000000602082015250565b7f4f776e61626c653a2063616c6c6572206973206e6f7420746865206f776e6572600082015250565b7f53616665436173743a2076616c756520646f65736e27742066697420696e203260008201527f3234206269747300000000000000000000000000000000000000000000000000602082015250565b7f416464726573733a2064656c65676174652063616c6c20746f206e6f6e2d636f60008201527f6e74726163740000000000000000000000000000000000000000000000000000602082015250565b7f45524332303a207472616e736665722066726f6d20746865207a65726f20616460008201527f6472657373000000000000000000000000000000000000000000000000000000602082015250565b7f53616665436173743a2076616c756520646f65736e27742066697420696e203360008201527f3220626974730000000000000000000000000000000000000000000000000000602082015250565b7f45524332303a20617070726f76652066726f6d20746865207a65726f2061646460008201527f7265737300000000000000000000000000000000000000000000000000000000602082015250565b7f496e697469616c697a61626c653a20636f6e7472616374206973206e6f74206960008201527f6e697469616c697a696e67000000000000000000000000000000000000000000602082015250565b7f45524332303a2064656372656173656420616c6c6f77616e63652062656c6f7760008201527f207a65726f000000000000000000000000000000000000000000000000000000602082015250565b7f45524332303a206d696e7420746f20746865207a65726f206164647265737300600082015250565b61572681614cbf565b811461573157600080fd5b50565b61573d81614cdd565b811461574857600080fd5b50565b61575481614d2f565b811461575f57600080fd5b50565b61576b81614d39565b811461577657600080fd5b50565b61578281614d49565b811461578d57600080fd5b5056fe416464726573733a206c6f772d6c6576656c2064656c65676174652063616c6c206661696c6564a264697066735822122067994f2fb7d60768337272814435e2febd67fb342aa55bf2fc1cc4b5aae2c00464736f6c63430008040033",
  "devdoc": {
    "custom:security-contact": "dev.mosinas@gmail.com",
    "kind": "dev",
    "methods": {
      "DOMAIN_SEPARATOR()": {
        "details": "See {IERC20Permit-DOMAIN_SEPARATOR}."
      },
      "allowance(address,address)": {
        "details": "See {IERC20-allowance}."
      },
      "approve(address,uint256)": {
        "details": "See {IERC20-approve}. NOTE: If `amount` is the maximum `uint256`, the allowance is not updated on `transferFrom`. This is semantically equivalent to an infinite approval. Requirements: - `spender` cannot be the zero address."
      },
      "balanceOf(address)": {
        "details": "See {IERC20-balanceOf}."
      },
      "checkpoints(address,uint32)": {
        "details": "Get the `pos`-th checkpoint for `account`."
      },
      "constructor": {
        "custom:oz-upgrades-unsafe-allow": "constructor"
      },
      "decimals()": {
        "details": "Returns the number of decimals used to get its user representation. For example, if `decimals` equals `2`, a balance of `505` tokens should be displayed to a user as `5.05` (`505 / 10 ** 2`). Tokens usually opt for a value of 18, imitating the relationship between Ether and Wei. This is the value {ERC20} uses, unless this function is overridden; NOTE: This information is only used for _display_ purposes: it in no way affects any of the arithmetic of the contract, including {IERC20-balanceOf} and {IERC20-transfer}."
      },
      "decreaseAllowance(address,uint256)": {
        "details": "Atomically decreases the allowance granted to `spender` by the caller. This is an alternative to {approve} that can be used as a mitigation for problems described in {IERC20-approve}. Emits an {Approval} event indicating the updated allowance. Requirements: - `spender` cannot be the zero address. - `spender` must have allowance for the caller of at least `subtractedValue`."
      },
      "delegate(address)": {
        "details": "Delegate votes from the sender to `delegatee`."
      },
      "delegateBySig(address,uint256,uint256,uint8,bytes32,bytes32)": {
        "details": "Delegates votes from signer to `delegatee`"
      },
      "delegates(address)": {
        "details": "Get the address `account` is currently delegating to."
      },
      "getPastTotalSupply(uint256)": {
        "details": "Retrieve the `totalSupply` at the end of `blockNumber`. Note, this value is the sum of all balances. It is but NOT the sum of all the delegated votes! Requirements: - `blockNumber` must have been already mined"
      },
      "getPastVotes(address,uint256)": {
        "details": "Retrieve the number of votes for `account` at the end of `blockNumber`. Requirements: - `blockNumber` must have been already mined"
      },
      "getVotes(address)": {
        "details": "Gets the current votes balance for `account`"
      },
      "increaseAllowance(address,uint256)": {
        "details": "Atomically increases the allowance granted to `spender` by the caller. This is an alternative to {approve} that can be used as a mitigation for problems described in {IERC20-approve}. Emits an {Approval} event indicating the updated allowance. Requirements: - `spender` cannot be the zero address."
      },
      "name()": {
        "details": "Returns the name of the token."
      },
      "nonces(address)": {
        "details": "See {IERC20Permit-nonces}."
      },
      "numCheckpoints(address)": {
        "details": "Get number of checkpoints for `account`."
      },
      "owner()": {
        "details": "Returns the address of the current owner."
      },
      "permit(address,address,uint256,uint256,uint8,bytes32,bytes32)": {
        "details": "See {IERC20Permit-permit}."
      },
      "proxiableUUID()": {
        "details": "Implementation of the ERC1822 {proxiableUUID} function. This returns the storage slot used by the implementation. It is used to validate that the this implementation remains valid after an upgrade. IMPORTANT: A proxy pointing at a proxiable contract should not be considered proxiable itself, because this risks bricking a proxy that upgrades to it, by delegating to itself until out of gas. Thus it is critical that this function revert if invoked through a proxy. This is guaranteed by the `notDelegated` modifier."
      },
      "renounceOwnership()": {
        "details": "Leaves the contract without owner. It will not be possible to call `onlyOwner` functions anymore. Can only be called by the current owner. NOTE: Renouncing ownership will leave the contract without an owner, thereby removing any functionality that is only available to the owner."
      },
      "symbol()": {
        "details": "Returns the symbol of the token, usually a shorter version of the name."
      },
      "totalSupply()": {
        "details": "See {IERC20-totalSupply}."
      },
      "transfer(address,uint256)": {
        "details": "See {IERC20-transfer}. Requirements: - `to` cannot be the zero address. - the caller must have a balance of at least `amount`."
      },
      "transferFrom(address,address,uint256)": {
        "details": "See {IERC20-transferFrom}. Emits an {Approval} event indicating the updated allowance. This is not required by the EIP. See the note at the beginning of {ERC20}. NOTE: Does not update the allowance if the current allowance is the maximum `uint256`. Requirements: - `from` and `to` cannot be the zero address. - `from` must have a balance of at least `amount`. - the caller must have allowance for ``from``'s tokens of at least `amount`."
      },
      "transferOwnership(address)": {
        "details": "Transfers ownership of the contract to a new account (`newOwner`). Can only be called by the current owner."
      },
      "upgradeTo(address)": {
        "details": "Upgrade the implementation of the proxy to `newImplementation`. Calls {_authorizeUpgrade}. Emits an {Upgraded} event."
      },
      "upgradeToAndCall(address,bytes)": {
        "details": "Upgrade the implementation of the proxy to `newImplementation`, and subsequently execute the function call encoded in `data`. Calls {_authorizeUpgrade}. Emits an {Upgraded} event."
      }
    },
    "version": 1
  },
  "userdoc": {
    "kind": "user",
    "methods": {},
    "version": 1
  },
  "storageLayout": {
    "storage": [
      {
        "astId": 597,
        "contract": "contracts/GovernanceToken.sol:GovernanceToken",
        "label": "_initialized",
        "offset": 0,
        "slot": "0",
        "type": "t_bool"
      },
      {
        "astId": 600,
        "contract": "contracts/GovernanceToken.sol:GovernanceToken",
        "label": "_initializing",
        "offset": 1,
        "slot": "0",
        "type": "t_bool"
      },
      {
        "astId": 2688,
        "contract": "contracts/GovernanceToken.sol:GovernanceToken",
        "label": "__gap",
        "offset": 0,
        "slot": "1",
        "type": "t_array(t_uint256)50_storage"
      },
      {
        "astId": 819,
        "contract": "contracts/GovernanceToken.sol:GovernanceToken",
        "label": "_balances",
        "offset": 0,
        "slot": "51",
        "type": "t_mapping(t_address,t_uint256)"
      },
      {
        "astId": 825,
        "contract": "contracts/GovernanceToken.sol:GovernanceToken",
        "label": "_allowances",
        "offset": 0,
        "slot": "52",
        "type": "t_mapping(t_address,t_mapping(t_address,t_uint256))"
      },
      {
        "astId": 827,
        "contract": "contracts/GovernanceToken.sol:GovernanceToken",
        "label": "_totalSupply",
        "offset": 0,
        "slot": "53",
        "type": "t_uint256"
      },
      {
        "astId": 829,
        "contract": "contracts/GovernanceToken.sol:GovernanceToken",
        "label": "_name",
        "offset": 0,
        "slot": "54",
        "type": "t_string_storage"
      },
      {
        "astId": 831,
        "contract": "contracts/GovernanceToken.sol:GovernanceToken",
        "label": "_symbol",
        "offset": 0,
        "slot": "55",
        "type": "t_string_storage"
      },
      {
        "astId": 1412,
        "contract": "contracts/GovernanceToken.sol:GovernanceToken",
        "label": "__gap",
        "offset": 0,
        "slot": "56",
        "type": "t_array(t_uint256)45_storage"
      },
      {
        "astId": 10,
        "contract": "contracts/GovernanceToken.sol:GovernanceToken",
        "label": "_owner",
        "offset": 0,
        "slot": "101",
        "type": "t_address"
      },
      {
        "astId": 122,
        "contract": "contracts/GovernanceToken.sol:GovernanceToken",
        "label": "__gap",
        "offset": 0,
        "slot": "102",
        "type": "t_array(t_uint256)49_storage"
      },
      {
        "astId": 3442,
        "contract": "contracts/GovernanceToken.sol:GovernanceToken",
        "label": "_HASHED_NAME",
        "offset": 0,
        "slot": "151",
        "type": "t_bytes32"
      },
      {
        "astId": 3444,
        "contract": "contracts/GovernanceToken.sol:GovernanceToken",
        "label": "_HASHED_VERSION",
        "offset": 0,
        "slot": "152",
        "type": "t_bytes32"
      },
      {
        "astId": 3582,
        "contract": "contracts/GovernanceToken.sol:GovernanceToken",
        "label": "__gap",
        "offset": 0,
        "slot": "153",
        "type": "t_array(t_uint256)50_storage"
      },
      {
        "astId": 2199,
        "contract": "contracts/GovernanceToken.sol:GovernanceToken",
        "label": "_nonces",
        "offset": 0,
        "slot": "203",
        "type": "t_mapping(t_address,t_struct(Counter)2695_storage)"
      },
      {
        "astId": 2201,
        "contract": "contracts/GovernanceToken.sol:GovernanceToken",
        "label": "_PERMIT_TYPEHASH",
        "offset": 0,
        "slot": "204",
        "type": "t_bytes32"
      },
      {
        "astId": 2367,
        "contract": "contracts/GovernanceToken.sol:GovernanceToken",
        "label": "__gap",
        "offset": 0,
        "slot": "205",
        "type": "t_array(t_uint256)49_storage"
      },
      {
        "astId": 1532,
        "contract": "contracts/GovernanceToken.sol:GovernanceToken",
        "label": "_delegates",
        "offset": 0,
        "slot": "254",
        "type": "t_mapping(t_address,t_address)"
      },
      {
        "astId": 1538,
        "contract": "contracts/GovernanceToken.sol:GovernanceToken",
        "label": "_checkpoints",
        "offset": 0,
        "slot": "255",
        "type": "t_mapping(t_address,t_array(t_struct(Checkpoint)1523_storage)dyn_storage)"
      },
      {
        "astId": 1542,
        "contract": "contracts/GovernanceToken.sol:GovernanceToken",
        "label": "_totalSupplyCheckpoints",
        "offset": 0,
        "slot": "256",
        "type": "t_array(t_struct(Checkpoint)1523_storage)dyn_storage"
      },
      {
        "astId": 2147,
        "contract": "contracts/GovernanceToken.sol:GovernanceToken",
        "label": "__gap",
        "offset": 0,
        "slot": "257",
        "type": "t_array(t_uint256)47_storage"
      },
      {
        "astId": 579,
        "contract": "contracts/GovernanceToken.sol:GovernanceToken",
        "label": "__gap",
        "offset": 0,
        "slot": "304",
        "type": "t_array(t_uint256)50_storage"
      },
      {
        "astId": 799,
        "contract": "contracts/GovernanceToken.sol:GovernanceToken",
        "label": "__gap",
        "offset": 0,
        "slot": "354",
        "type": "t_array(t_uint256)50_storage"
      }
    ],
    "types": {
      "t_address": {
        "encoding": "inplace",
        "label": "address",
        "numberOfBytes": "20"
      },
      "t_array(t_struct(Checkpoint)1523_storage)dyn_storage": {
        "base": "t_struct(Checkpoint)1523_storage",
        "encoding": "dynamic_array",
        "label": "struct ERC20VotesUpgradeable.Checkpoint[]",
        "numberOfBytes": "32"
      },
      "t_array(t_uint256)45_storage": {
        "base": "t_uint256",
        "encoding": "inplace",
        "label": "uint256[45]",
        "numberOfBytes": "1440"
      },
      "t_array(t_uint256)47_storage": {
        "base": "t_uint256",
        "encoding": "inplace",
        "label": "uint256[47]",
        "numberOfBytes": "1504"
      },
      "t_array(t_uint256)49_storage": {
        "base": "t_uint256",
        "encoding": "inplace",
        "label": "uint256[49]",
        "numberOfBytes": "1568"
      },
      "t_array(t_uint256)50_storage": {
        "base": "t_uint256",
        "encoding": "inplace",
        "label": "uint256[50]",
        "numberOfBytes": "1600"
      },
      "t_bool": {
        "encoding": "inplace",
        "label": "bool",
        "numberOfBytes": "1"
      },
      "t_bytes32": {
        "encoding": "inplace",
        "label": "bytes32",
        "numberOfBytes": "32"
      },
      "t_mapping(t_address,t_address)": {
        "encoding": "mapping",
        "key": "t_address",
        "label": "mapping(address => address)",
        "numberOfBytes": "32",
        "value": "t_address"
      },
      "t_mapping(t_address,t_array(t_struct(Checkpoint)1523_storage)dyn_storage)": {
        "encoding": "mapping",
        "key": "t_address",
        "label": "mapping(address => struct ERC20VotesUpgradeable.Checkpoint[])",
        "numberOfBytes": "32",
        "value": "t_array(t_struct(Checkpoint)1523_storage)dyn_storage"
      },
      "t_mapping(t_address,t_mapping(t_address,t_uint256))": {
        "encoding": "mapping",
        "key": "t_address",
        "label": "mapping(address => mapping(address => uint256))",
        "numberOfBytes": "32",
        "value": "t_mapping(t_address,t_uint256)"
      },
      "t_mapping(t_address,t_struct(Counter)2695_storage)": {
        "encoding": "mapping",
        "key": "t_address",
        "label": "mapping(address => struct CountersUpgradeable.Counter)",
        "numberOfBytes": "32",
        "value": "t_struct(Counter)2695_storage"
      },
      "t_mapping(t_address,t_uint256)": {
        "encoding": "mapping",
        "key": "t_address",
        "label": "mapping(address => uint256)",
        "numberOfBytes": "32",
        "value": "t_uint256"
      },
      "t_string_storage": {
        "encoding": "bytes",
        "label": "string",
        "numberOfBytes": "32"
      },
      "t_struct(Checkpoint)1523_storage": {
        "encoding": "inplace",
        "label": "struct ERC20VotesUpgradeable.Checkpoint",
        "members": [
          {
            "astId": 1520,
            "contract": "contracts/GovernanceToken.sol:GovernanceToken",
            "label": "fromBlock",
            "offset": 0,
            "slot": "0",
            "type": "t_uint32"
          },
          {
            "astId": 1522,
            "contract": "contracts/GovernanceToken.sol:GovernanceToken",
            "label": "votes",
            "offset": 4,
            "slot": "0",
            "type": "t_uint224"
          }
        ],
        "numberOfBytes": "32"
      },
      "t_struct(Counter)2695_storage": {
        "encoding": "inplace",
        "label": "struct CountersUpgradeable.Counter",
        "members": [
          {
            "astId": 2694,
            "contract": "contracts/GovernanceToken.sol:GovernanceToken",
            "label": "_value",
            "offset": 0,
            "slot": "0",
            "type": "t_uint256"
          }
        ],
        "numberOfBytes": "32"
      },
      "t_uint224": {
        "encoding": "inplace",
        "label": "uint224",
        "numberOfBytes": "28"
      },
      "t_uint256": {
        "encoding": "inplace",
        "label": "uint256",
        "numberOfBytes": "32"
      },
      "t_uint32": {
        "encoding": "inplace",
        "label": "uint32",
        "numberOfBytes": "4"
      }
    }
  }
}